:100000000C9457040C9474040C9474040C94B5254B
:100010000C9474040C9474040C9474040C94740480
:100020000C9474040C9474040C946C220C9453235C
:100030000C9436100C9474040C9474040C94740492
:100040000C9474040C9474040C9474040C94740450
:100050000C9474040C9448220C9474040C9474044E
:100060000C9474040C9474040C9474040C94740430
:100070000C9474040C9474040C9474040C94740420
:100080000C9474040C9474040C9474040C94740410
:100090000C9474040C9474040C9474040C94740400
:1000A0000C9474040C9474040C947404E3002A00FB
:1000B0000000E30051000000E30052000000E300F4
:1000C0004F000000E3005000000000AF00AE000051
:1000D000000000003E5B4F5B3E003E6B4F6B3E00FE
:1000E0001C3E7C3E1C00183C7E3C18001C577D5773
:1000F0001C001C5E7F5E1C0000183C180000FFE71F
:10010000C3E7FF00001824180000FFE7DBE7FF004B
:1001100030483A060E00262979292600407F050539
:100120000700407F05253F005A3CE73C5A007F3ED0
:100130001C1C0800081C1C3E7F0014227F22140097
:100140005F5F005F5F0006097F017F0000668995A1
:100150006A0060606060600094A2FFA294000804DE
:100160007E04080010207E20100008082A1C0800C9
:10017000081C2A0808001E10101010000C1E0C1E6F
:100180000C0030383E383000060E3E0E06000000EF
:100190000000000000005F000000000700070000F2
:1001A000147F147F1400242A7F2A1200231308646A
:1001B0006200364956205000000807030000001C6A
:1001C000224100000041221C00002A1C7F1C2A0042
:1001D00008083E0808000080703000000808080881
:1001E00008000000606000002010080402003E517A
:1001F00049453E0000427F4000007249494946009F
:100200002141494D33001814127F10002745454500
:1002100039003C4A4949310041211109070036495A
:1002200049493600464949291E00000014000000D3
:10023000004034000000000814224100141414147B
:1002400014000041221408000201590906003E4131
:100250005D594E007C1211127C007F4949493600DD
:100260003E41414122007F4141413E007F49494991
:1002700041007F09090901003E41415173007F0897
:1002800008087F0000417F4100002040413F0100FD
:100290007F08142241007F40404040007F021C0242
:1002A0007F007F0408107F003E4141413E007F09EE
:1002B000090906003E4151215E007F0919294600C7
:1002C00026494949320003017F0103003F40404075
:1002D0003F001F2040201F003F4038403F00631474
:1002E000081463000304780403006159494D430076
:1002F000007F4141410002040810200000414141BB
:100300007F0004020102040040404040400000031E
:10031000070800002054547840007F2844443800E7
:10032000384444442800384444287F003854545406
:10033000180000087E0902001824241C78007F0899
:100340000404780000447D4000002040403D00004F
:100350007F102844000000417F4000007C047804A6
:1003600078007C08040478003844444438007C1841
:1003700024241800182424187C007C080404080095
:1003800048545454240004043F4424003C4040207A
:100390007C001C2040201C003C4030403C00442895
:1003A000102844004C9090907C004464544C4400CD
:1003B00000083641000000007700000000413608C8
:1003C00000000201020402003C2623263C0000003B
:1003D00000000080808080000000000080E0701835
:1003E0000C1830E080000010F8901030783010B811
:1003F000FC3810000000000000F8FCF800000000CD
:100400000000000000000000001C9C1C0000000018
:10041000F8FCF80000000000001CFCF8C000000020
:1004200000000080E0F87C1C000000F0FCFCFC1CDC
:100430001C1C1C1C1C1C1C000000000000C0F0F850
:10044000381C1C1C1C1C1C3CF8F0E000E0F0F0F018
:10045000E0ECEEF7F37020007C7C7C7E007E7E7EFC
:100460007F7F7F000080C0E07E5B4F5BFEC00000AE
:10047000C000DCD7DEDEDED7DC00C00000000000FC
:10048000000000000000000000000000000000006C
:100490000000000FBCE0818181838382870C1830CB
:1004A00060C000001FFE90B9FFBB91983C1811136B
:1004B0003F1100000000000000FFFFFF00000000EF
:1004C000000000000000000000FFFFFF000000002F
:1004D000FFFFFF0000000000000000030F7FF8E0B6
:1004E00080F0FC3F0F0100000000003F3F3F1C1C5C
:1004F0001C1C1C3C78F8F0E08000000000C3E7FF03
:100500007E3C3878787070F8FFDF87000F1F3F7FE0
:100510007F7F7F7F3F1E0C001F1F1F3F003F3F3F1D
:100520007F7F7F00307B7F7830202030787F3B00DA
:1005300003000F7F0F0F0F7F0F000300000000006C
:100540000000000000000000000000000000183C57
:1005500024666341C18180808080808081C1416246
:10056000386C4CC68181808080808081C143623636
:100570001C1800000000000000FFFFFFC0C0C0C04A
:10058000C0C0C0C0C0800000007FFF7F000000002E
:100590007FFFFFC080000000E0E0C0C0C0E0F97F46
:1005A0001F0700000000000000000070F0E0E0C045
:1005B000C0C0C0E0F0F87F3F0F0000000F3F7FF9A0
:1005C000E0E0C0C0C0C0C0E0F97F3F1F00000000F5
:1005D000000000000000000000000000000000001B
:1005E000000000000000000000000000000000000B
:1005F00000000000000000000000000000000000FB
:1006000000000000000000000000000000000501E4
:100610000906A101050719E029E71500250195083C
:10062000750181029501750881010507190029FFEF
:10063000150026FF00950675088100050819012997
:100640000515002501950575019102950175039128
:1006500001C009022200010100A0FA090400000102
:100660000301010009211101000122440007058155
:10067000030800011201000200000008D8042DEB5D
:100680000001010200010E034C0069006C007900BA
:1006900035003800000010036C0069006C00690030
:1006A00075006D00730000000403090400DA028184
:1006B000FFD9F1DB20A4A62EAF00A0C0D30000A17B
:1006C000C8D30000AED580A81F408D14200029009B
:1006D0001E00407E2000210022002B0014001A0082
:1006E000080015001700E0000400160007000900CC
:1006F0000A00E1001D001B000600190005000000B3
:10070000E300E2008B412C00487E4D7E457E447E16
:10071000437E427E417E2D00130012000C00180023
:100720001C004C7E4B7E0F000E000D000B00E50000
:10073000380037003600100011000000E7002A00E2
:100740008A422800497E01000100010001000100E9
:10075000010029001E00407E2000210022003500FB
:100760001E021F02200221022202010001000100DC
:100770000100010001000000010001000100010072
:1007800001000100010001000100010001004D7E97
:10079000457E447E437E427E417E3502270226020C
:1007A000250224022302310230022F022E022D02E2
:1007B0000000000001000100010001000100010033
:1007C0000100010001000100010035001E001F00B2
:1007D0002000210022003A003B003C003D003E008A
:1007E0003F0040004100420043004400450000003B
:1007F00001000100010001000100010001000100F1
:10080000010001000100010027002600250024004E
:10081000230000004C004F005200510050004A7E5F
:1008200030002F00477E467E2E02000001000100AE
:1008300001000100010000000000000000000000B5
:1008400000000000000000000000000000000000A8
:100850000000000000000000000000000000000098
:100860000000000000000000010001000100010084
:100870000000000000000000000000000000000078
:100880000000000000000000000000000000000068
:100890000000000000000000000000000000000058
:1008A000000000000100010001000100000011240F
:1008B0001FBECFEFDAE0DEBFCDBF12E0A0E0B1E0B7
:1008C000EEE1F5E502C005900D92A833B107D9F726
:1008D00026E0A8E3B2E001C01D92AA32B207E1F718
:1008E0000E945A1E0C944B2A0C94000090932706E9
:1008F0008093260608959C0186709927069731F407
:10090000286030932906209328060895277FF9CF81
:1009100021E030E002C0220F331F8A95E2F7809178
:10092000280690912906822B932B0E947B04089520
:1009300021E030E002C0220F331F8A95E2F72095B4
:1009400030958091280690912906822393230E9456
:100950007B0408959A3090F5863080F5E82FF0E01A
:1009600086E0989FE00DF11D11248E2F877041E0E5
:1009700001C0440F8A95EAF783E0F695E7958A95DA
:10098000E1F7EE0FFF1FEE0FFF1FEB5AFA4F20E0CB
:1009900030E070E05191DF01CB01022E02C096954C
:1009A00087950A94E2F781708195852784238527AE
:1009B0008E932F5F3F4F2430310561F708959A30B1
:1009C00078F5863068F5E82FF0E086E0989FE00D36
:1009D000F11D11249E2F977083E0F695E7958A9577
:1009E000E1F7EE0FFF1FEE0FFF1FEB5AFA4F40E04B
:1009F00050E080E0219130E0092E02C03695279525
:100A00000A94E2F721703327042E01C0220F0A94C2
:100A1000EAF7822B4F5F5F4F4430510559F7089535
:100A200080E008958091030590910205981301C01C
:100A300008958F5F8770FACF9091AB0580958923D9
:100A40008093AB05282F277021110DC0891759F00D
:100A50009091AD0592FF07C08695869586950E9478
:100A600098041092AB050895982F90958091A80551
:100A700089238093A80508957A30B8F46630A8F4E5
:100A80008430B0F4E62FF0E096E0799FE00DF11DA0
:100A900011249CE3899FE00DF11D1124EE0FFF1F2F
:100AA000E253F94F85919491089580E090E0089584
:100AB00081E0FCCF9C01803E910509F448C0D8F448
:100AC0008133910509F47DC048F48932910509F418
:100AD0006DC08A9709F47CC0C901089589339105D6
:100AE00051F18238910539F1C597B1F78091AC0584
:100AF00085FFF2CF29C0843E910509F447C048F430
:100B0000823E910599F1833E9105A9F121EE30E0F5
:100B1000E3CF863E910509F444C0873E9105E1F696
:100B20008091AC0583FD61C09091AD0591FF2BC014
:100B300024EE30E0D1CF8091AC058370811152C09A
:100B40008091AD0583FFC8CF29E230E0C5CF809109
:100B5000AC0580FD33C09091AD0590FFBDCF23EE75
:100B600030E084FFB9CF20E030E0B6CF8091AC0513
:100B700082FDF5CFB1CF8091AC0582FD30C0909160
:100B8000AD0590FD2FC084FFA7CFEDCF8091AD05BF
:100B900081FFA2CF8091AC0527EE30E084FDE3CF4A
:100BA0009BCF8091AC0583FDF7CF96CF8091AC05AC
:100BB00085FD1EC08091AD0583FF8ECF29E330E017
:100BC0008BCF8091AC0586FF87CF2AE230E084CFBF
:100BD0008091AC0586FF80CF21E330E07DCF22EE0F
:100BE00030E07ACF20EE30E077CF26EE30E074CFE1
:100BF00025E330E071CF9091AC0592FF10C041E049
:100C0000282F2471243009F040E031E0282F28718A
:100C1000283009F030E0431711F02CE0822793FFD1
:100C200010C041E0282F2471243109F040E031E068
:100C3000282F2871283109F030E0431711F02CE0FB
:100C400082273091AD0530FF10C051E0282F21716F
:100C5000213009F050E041E0282F2871283009F0B8
:100C600040E0541711F029E0822731FF10C041E025
:100C7000282F2171213109F040E031E0282F28711F
:100C8000283109F030E0431711F029E0822794FD64
:100C9000877E08951F93CF93DF930E945A05EC013E
:100CA000811522E5920708F047C0811540E59407B9
:100CB00008F0BEC0883E9105E0F4803E910560F4E6
:100CC000853A910570F4049738F481E0219709F092
:100CD00080E0C82F50E0D52FCE01DF91CF911F913A
:100CE00008958D5C9109D0654397B0F3C0E0D0E0E2
:100CF000F3CFC11580E4D807A8F4C11590E2D90755
:100D000008F0ACC0CE019A9581159F4178F78D2FE0
:100D10000E94FB05182FCE0199270E945A05EC016D
:100D2000D12BDACFCE0199270E945A05CC27DF704C
:100D3000C82BD92BD06AD0CF803842E59407C8F5AC
:100D4000803652E5950708F056C0C03482E5D807D2
:100D5000D0F4C03292E5D90708F046C08C2F8695B2
:100D6000869520E2829FC0011124C37021E030E00B
:100D7000A90102C0440F551FCA95E2F7EA01C82B2A
:100D8000D92BDD68A9CF8C2F86958695877050E288
:100D9000859FC0011124C37021E030E0A90102C089
:100DA000440F551FCA95E2F7EA01C82BD92BDC681E
:100DB00093CF803C52E5950758F48F71C03AD245E5
:100DC00078F590E0982F8827EC01C46FD06A84CF23
:100DD000805C9245809708F089CFDC2FCC27CC2708
:100DE000DF71C06FD06A78CFCF71D0E0DC2FCC2715
:100DF000C16FD06A71CF86958695877020E2829FF9
:100E0000C0011124C37021E030E0A90102C0440FE9
:100E1000551FCA95E2F7EA01C82BD92BDA685CCFD7
:100E20000E94FB05C82FD0E0DC2FCC27D06254CF26
:100E30008F710E94FB0593E0CC0FDD1F9A95E1F7BF
:100E4000CC27DF70282F30E084FF04C050E1859F5D
:100E500090011124C22BD32BD0693ECF8D2F8F71DF
:100E60000E94FB05182FCE0199270E945A05EC011C
:100E7000D12BDCCFA0E0B0E0E0E4F7E00C94ED266D
:100E80008C01E0902806F09029068091260690912A
:100E90002706E82AF92ACFE0D0E0CC24C394D12C4D
:100EA000C6010C2E02C0880F991F0A94E2F78E210A
:100EB0009F21892B49F4219798F7B12C8B2DCDB721
:100EC000DEB7E9E00C940927BC2EB8018C2F0E94F4
:100ED0003C050E944A06019771F3F0CFEF92FF9212
:100EE0000F931F93CF93FC01078110850115110506
:100EF000A1F48581E080F1808115B1F06115A1F048
:100F0000C7010E943A07C82F682FC7010E94AA0490
:100F1000B7018C2F0E943C058C01C801CF911F9115
:100F20000F91FF90EF900895C7010E94DF04C82F32
:100F3000EFCFCF93DF93D82FC92F0E943A076D2FA1
:100F40007C2F0E943C050E944A06DF91CF910895B4
:100F5000FC0184818115B1F0878190850097A1F013
:100F60000E944A06282F92959F709630C1F088F40F
:100F7000925F9F70923030F4203FD9F060F481E0AE
:100F8000283E60F080E00895808191810E94990759
:100F9000E9CF9A5FEECF81E0243FA1F7089591E079
:100FA000813F09F090E081E0283E08F080E0892B45
:100FB000089581E0089580E00895F894E82FE2957F
:100FC000EF70F0E041A18F7021E030E0B90102C084
:100FD000660F771F8A95E2F7CB01962F90959423A1
:100FE00091A392A1892B82A3789408951092B805B9
:100FF0001092B705EEE6F1E08581811102C01482FE
:101000001682379681E0E139F807B1F70895AC010F
:101010003091BA056091B905232F621301C008957C
:10102000822F90E0FC01EE0FFF1FE155FA4F019077
:10103000F081E02DE417F507B9F4E0E0F0E0453089
:10104000510540F467E0649FF001659FF00D1124A5
:10105000E259FE4F41E044832313E1CF01968370B0
:1010600099278093BA0508950196282F2370D5CF2C
:101070008091F004811559F0E091F804F091F904A1
:10108000309729F00190F081E02D0995089580E0D6
:1010900008959C01FC0132968FEF90E04191461734
:1010A00051F08F3F19F4411101C0892F9F5F963095
:1010B000A9F78F3F09F40895280F311D87FD3A9550
:1010C000F901628308959C01FC013296285F3F4F2D
:1010D0008191861302C0DF011E92E217F307C1F768
:1010E00008958091010108952FB7F89460916802E6
:1010F0007091690280916A0290916B022FBF0895EE
:10110000CF92DF92EF92FF928091F004811559F017
:101110000E9474086B017C01C701B601FF90EF903B
:10112000DF90CF9008950E947408C090F204D09090
:10113000F304E090F404F090F504C60ED71EE81E08
:10114000F91EEACF089508950895FC019B0180914E
:101150005E0290915F028617970740F0672B29F493
:101160008091E8008E778093E800C90140E0009705
:1011700041F4411106C08091E80082FF2FC080E059
:10118000089520917B022115A9F12530A9F1209124
:10119000E80023FD2DC02091E80022FDECCF209136
:1011A000E80020FFE4CF3091F3002091F200009797
:1011B00019F02830310558F041E02830310509F0A8
:1011C00040E02091E8002E772093E800D0CF4191B5
:1011D0004093F10001972F5F3F4FE9CF80917B0251
:1011E000811541F0853041F08091E80083FFC3CF45
:1011F00081E0089582E0089583E008958091580287
:1012000087FF13C08091E80082FF06C08091E8004C
:101210008B778093E800089580917B028111F2CF53
:10122000089580917B028115D9F38091E80080FFB9
:10123000F8CF8091E8008E77ECCF2091E4003091D8
:10124000E50095E6A9012091EC00822F817020FF36
:1012500006C08091E80080FF06C080E008952091DC
:10126000E80022FD1AC080917B02811589F085304B
:1012700089F08091EB0085FD0FC02091E400309152
:10128000E50042175307F9F29A95E1F684E00895D4
:1012900082E0089583E0089581E00895E8EDF0E0AC
:1012A00080818E7F80831092E2001092DA0010928B
:1012B000E100A0EEB0E08C9181608C9380818F770B
:1012C000808319BCA7EDB0E08C918E7F8C938081D8
:1012D0008F7E8083109257020895FC01AC014B5F12
:1012E0005F4F8FEF61E39191892728E030E0982FDD
:1012F000990F87FF09C0892F862721503040B9F701
:10130000E417F50781F70895892FF7CF982F909369
:10131000E900891771F05091EC002091ED004091A7
:10132000F00021FD09C09F5F973089F78093E900A5
:101330000895562F40E022E03091EB003E7F30933D
:10134000EB003091ED003D7F3093ED003091EB00EC
:1013500031603093EB005093EC002093ED0040930C
:10136000F0002091EE0027FDDECF0895A0E0B0E070
:10137000ECEBF9E00C94EE26C8EDD0E088818F7E8E
:101380008883E7EDF0E080818160808384E082BF24
:1013900081E08093570288818E7F888302EE10E07F
:1013A000F80110821092DA0081EEC82ED12CF601DD
:1013B000108288818F77888388818068888388817C
:1013C0008F7D888319BC10927B0210925602109276
:1013D0007A021092550290EEE92EF12CF7018081ED
:1013E0008B7F808388818160888360E080E00E94B9
:1013F0008609F60180818E7F8083F801808181607B
:101400008083808188608083F70180818E7F8083E4
:10141000888180618883CDB7DEB7E8E00C940A2725
:10142000E09103059091020529E0E91302C080E0F4
:101430000895AE2FB0E02E9FF0011124EC5FFA4F1B
:101440003181361306C03081381303C0358134131F
:1014500004C0FD013196E770E8CF81E008950F9355
:101460001F93CF93DF938C0180917B02843051F5E1
:1014700081E08093E9008FEF9091E80095FD06C030
:1014800095ED9A95F1F700008A95B1F78091E80003
:1014900085FF18C00E941D0981110FC0C8E0D0E06F
:1014A0008091E80085FD13C08091E8008E778093DD
:1014B000E8000E941D09811599F38091E8008E775C
:1014C0008093E800DF91CF911F910F910895F8016B
:1014D00081918F018093F100219711F7EECFCF9387
:1014E000DF93D82FC92F0E942F0A88E0ED2FFC2F01
:1014F000A0E6B2E001900D928A95E1F7DF91CF91DD
:101500000895A0E0B0E0E7E8FAE00C94EC26182F8C
:10151000092FB62EA72E7A0180914C029AE0C92E8F
:10152000D12C8A3018F0CC24C394D12CC1E0D0E067
:101530006B2D7A2D812F902FF7010995811116C0FF
:101540002196CC16DD0694F0CC9FC001CD9F900D66
:10155000900D112420E030E045E34A95F1F70000BA
:101560002F5F3F4F28173907B9F7E2CFCDB7DEB766
:10157000EAE00C9408279091AD0592FB222720F910
:10158000281779F080FB92F99093AD056091AC0536
:101590007091AD0584E090E00E94352A82E00E94BF
:1015A0001C0508958091A8059091AE05892B409166
:1015B000A905411589F090E02CE332E0F901508152
:1015C0002F5F3F4F51119F5F52E022343507B1F733
:1015D00091111092A905842B80933A0248E050E0C3
:1015E0006AEF74E08AE392E00E943627892BA9F023
:1015F00088E0EAE3F2E0AAEFB4E001900D928A9568
:10160000E1F7E091F804F091F904309731F00280AD
:10161000F381E02D8AE392E0099508951092A805E0
:10162000ECE3F2E086E0DF011D928A95E9F7109283
:10163000AE050E94D20A08950E940E0B2FEF84E39C
:101640009CE0215080409040E1F700C0000088E11C
:101650009AE00FB6F894A895809360000FBE90931F
:101660006000FFCFAAE2B0E0E8E3FBE00C94F326D1
:1016700088E592E0FC0101962091F100208322E0B0
:1016800080369207B9F780915902893009F45AC01F
:10169000C8F4823009F4B6C0833009F485C08130C3
:1016A00091F18091E80083FFEAC080915802909107
:1016B00059029A3008F0E3C0E92FF0E0E35BF54D02
:1016C0000C9427278A3009F48CC08B3051F7809115
:1016D0005802813231F780915C0290915D02892B32
:1016E00001F78091E800877F8093E8000E94FE0860
:1016F00081E090915A02911101C080E08093020133
:101700000E940E0BCECF80915802813A51F6809103
:10171000E800877F8093E80080915C0290915D02F1
:10172000892B61F060E080E090E070E00E94A50805
:101730008091E8008B778093E800B3CF68E080E683
:1017400092E0F3CF80915802813209F0AACF8091C4
:101750005C0290915D02892B09F0A3CF8091E80093
:10176000877F8093E8008091E80082FF18C0909105
:10177000F3008091F200029731F48091F100813002
:1017800011F0863021F48091F10080930101809165
:10179000E8008B778093E8000E94FE0882CF80915A
:1017A0007B028111E0CF7DCF80915802813A09F010
:1017B00078CF80915C0290915D02892B09F071CF06
:1017C0008091E800877F8093E8008091E80080FFA7
:1017D000FCCF809102018093F1008091E8008E7728
:1017E000D9CF80915802813209F05BCF8091E80017
:1017F000877F8093E8000E94FE0880915B028093BF
:1018000000014FCF80915802813A09F04ACF809170
:10181000E800877F8093E8008091E80080FFFCCF9C
:1018200080910001D8CF803889F0823841F58091CD
:101830005C028F70873018F58093E9008091EB008F
:1018400085FB882780F91092E90006C080917A0212
:10185000880F90915502892B9091E800977F909383
:10186000E8008093F1001092F1008091E8008E77FB
:1018700023C0811116C080915A02813011F18091EC
:10188000E80083FF0AC08091E800877F8093E8002A
:101890008091EB0080628093EB00AA96E3E00C94C9
:1018A0000F27823061F780915A02811589F01092DA
:1018B000E9008091E800877F8093E8000E94FE089D
:1018C000DECF81E0933009F080E080937A02EFCFA1
:1018D00080915C028F702FEF280F263080F6809366
:1018E000E9002091EB0020FFE2CF933031F48091AA
:1018F000EB0080628093EB00DACF9091EB00906177
:101900009093EB0021E030E0A90102C0440F551F85
:101910008A95E2F74093EA001092EA008091EB008A
:101920008860E8CF8111ABCF10915A021F77809168
:10193000E3008078812B8093E3008091E800877F2B
:101940008093E8000E94FE088091E80080FFFCCFB1
:101950008091E30080688093E30083E0111101C06F
:1019600082E080937B028BCF8058823008F087CF53
:1019700020915A0230915B022C3D53E0350799F5D6
:1019800083E08A838AE289834FB7F894DE01139655
:1019900020E03EE051E2E32FF0E0509357008491C5
:1019A00020FF03C082958F703F5F8F708A30C8F030
:1019B000895C90E08D939D932F5F243161F74FBF39
:1019C0008091E800877F8093E8006AE270E0CE01B2
:1019D00001960E94A5088091E8008B778093E8002B
:1019E0004ECF805DE6CF832F99278330910501F19B
:1019F00060F48130910509F46CC0029709F03FCF83
:101A000082E290E0E2E5F6E028C020915C023091AD
:101A10005D028132910509F454C0829709F02FCFFD
:101A2000232B09F02CCF84E490E0EEE0F6E015C023
:101A3000C90199272130A9F18230910509F439C0F3
:101A4000892B09F01CCFE8EAF6E0E4918E2F90E0B4
:101A5000E8EAF6E0009709F412CF2091E800277F2A
:101A60002093E80020915E0230915F028217930775
:101A700008F49C0140E02115310581F541112EC08B
:101A80008091E80082FDA7CF80917B02811509F447
:101A9000A2CF853009F49FCF8091E80083FFF0CF7B
:101AA0009ACFE6E9F6E0E4918E2F90E0E6E9F6E0E1
:101AB000D1CFE6E8F6E0E4918E2F90E0E6E8F6E09C
:101AC000C9CF232B09F0DBCE89E090E0E4E6F6E015
:101AD000C4CF82E190E0E4E7F6E0BFCF80917B02E3
:101AE000811509F478CF853009F475CF8091E8002D
:101AF00083FD71CF8091E80082FDC2CF8091E80024
:101B000080FFB9CF9091F3008091F200211531054B
:101B100019F08830910550F041E0089709F040E055
:101B20008091E8008E778093E800A5CF44914093A0
:101B3000F1003196215031090196E8CF803809F043
:101B40009ECE8091E800877F8093E80080915602C6
:101B50008093F1008ACE811192CE10915A021230F8
:101B600008F08DCE8091E800877F8093E800109385
:101B700056020E94FE08111579F084E080937B02E2
:101B800061EC81E00E94860980917B02843051F4EF
:101B900082E08093030173CE8091E30087FDEDCF57
:101BA00081E0ECCF81E0F5CFCF93C82F8115A9F06C
:101BB0008CEF8C0F813A98F4ECE3F2E082E492E04F
:101BC0002191C217E9F08E179F07D1F76C2F8AE396
:101BD00092E00E9449080E94D20ACF91089580E2C3
:101BE0008C0F8830D0F7C77021E030E001C0220FA1
:101BF000CA95EAF78091A805822B8093A805EBCFC0
:101C00006C2F8AE392E00E9463080E94D20ADECF22
:101C1000682F811551F08CEF860F813A38F48AE3F2
:101C200092E00E9463080E94D20A089580E2860F23
:101C30008830D8F7677081E001C0880F6A95EAF7AD
:101C40000E943405F0CF811539F09091A805892BB9
:101C50008093A8050E94D20A0895811521F00E9460
:101C600034050E94D20A0895CF92DF92EF92FF923C
:101C70001F93CF93DF9300D000D0CDB7DEB7C090D5
:101C8000D904D090DA04E090DB04F090DC040E94E8
:101C900074086C197D098E099F0911E0643671057D
:101CA0008105910578F10E948008DC01CB01029644
:101CB000A11DB11D89839A83AB83BC838091670189
:101CC0009091680183529B4F20916601422F50E012
:101CD000253010F044E050E0BE016F5F7F4F0E945E
:101CE000432782E090E00E945C26182F811551F076
:101CF0000E9474086093D9047093DA048093DB0423
:101D00009093DC04812F0F900F900F900F90DF9134
:101D1000CF911F91FF90EF90DF90CF9008958F9219
:101D20009F92AF92BF92FF920F931F93CF93DF9337
:101D300000D000D000D0CDB7DEB7F62E072F80E060
:101D400090E00E945C26182F811509F460C08091F4
:101D50005901482F50E0811511F041E050E06091A9
:101D60005A0170915B0163527B4FCE0106960E942F
:101D700043278090EC049090ED04A090EE04B09086
:101D8000EF040E947408681979098A099B0964366E
:101D900071058105910538F48EED94E00E946D097E
:101DA0009E818917A1F181E090E00E945C26811557
:101DB000C9F180916101482F50E0863010F045E074
:101DC00050E0609162017091630163527B4FCE01DC
:101DD00001960E9443278EED94E00E946D099E813A
:101DE000891320C00E9474086093EC047093ED0482
:101DF0008093EE049093EF0485E0FE013196A7EE08
:101E0000B4E001900D928A95E1F781E00CC085E085
:101E1000EEEDF4E0DE01119601900D928A95E1F766
:101E20001111EACF80E095E0E7EEF4E0AF2DB02F9E
:101E300001900D929A95E1F70F900F900F900F90EF
:101E40000F900F90DF91CF911F910F91FF90BF9056
:101E5000AF909F908F900895AB0124E630E0BC01D5
:101E600088E70E9478249C0181E0232B09F080E020
:101E700008958091D704811569F08091D40481156B
:101E800049F062E070E08CEC90E00E942C0F811130
:101E90001092D40408958091D7048115F9F00E941E
:101EA0007408DC01CB01805A9541AF4FBF4F80933E
:101EB000D0049093D104A093D204B093D304809122
:101EC000D40481110BC062E070E08AEC90E00E94C3
:101ED0002C0F811519F081E08093D4040895CF93DD
:101EE000DF93682F81E06A3019F06D3031F480E0C3
:101EF0000E94EF0FDF91CF91089580919102909110
:101F0000920226E0FC01AFE4B2E001900D922A9526
:101F1000E1F7603E08F458C026E0FC0111922A95D2
:101F2000E9F7C0919102D091920246E050E0BE01E3
:101F30008FE492E00E9436279E012C5C3240892B70
:101F400041F1C90145E0969587954A95E1F741E051
:101F500050E0BA0102C0660F771F8A95E2F7CB0105
:101F60006091CE047091CF04862B972BB9016B5FE3
:101F70007F4FE5E076956795EA95E1F702C0440F5B
:101F8000551F6A95E2F7842B952B9093CF0480938D
:101F9000CE042A5F3F4F40919302642F70E0C90145
:101FA0000E94D026481B463010F4240F311D211505
:101FB00072E0370710F020E030E024533D4F3093BB
:101FC00092022093910296CFF6E06F9FB001112408
:101FD00062537F4F46E050E00E942D27A2CFCF935F
:101FE000382FE0919102F0919202EC5CF240209146
:101FF0009302622F70E0CF010E94D026281B822F0F
:10200000311561F066E00E941B27C82FC15010F403
:10201000CF91089580E20E946F0FF8CF8E0F9F2F0F
:10202000911D811522E0920710F080E090E084532A
:102030009D4F9093920280939102EACF0F931F934A
:10204000CF93DF93EC01FC0101900020E9F78F01B1
:1020500001501109C017D10728F0DF91CF911F91CE
:102060000F91089589910E946F0FF4CF1F921FB6B0
:102070001F9211248F939F93AF93BF938091790206
:10208000811113C08091680290916902A0916A0247
:10209000B0916B024196A11DB11D8093680290938F
:1020A0006902A0936A02B0936B02BF91AF919F91B6
:1020B0008F911F901FBE1F9018952FB7F894809195
:1020C000680290916902A0916A02B0916B022FBFE1
:1020D0000895CF93DF93EC010E945D108C1B9D0B44
:1020E000DF91CF910895EF92FF920F931F93CF93BB
:1020F000DF93C62FD42F122F8115A9F06093A60568
:102100000E945D1090934E0280934D02C77081E053
:1021100001C0880FCA95EAF70E94230ECDB7DEB73B
:10212000E6E00C940C278091A605681335C0E0907A
:102130004D02F0904E020E945D108E199F09883C5E
:10214000910550F500E20D0FCD17A9F0C770FF24DF
:10215000F3948F2D01C0880FCA95EAF70E942D0EC7
:10216000083048F48D2F877001C0FF0C8A95EAF77C
:102170008F2D0E94230E812F0E94D40D812F0E944B
:10218000080E083058F6D77081E001C0880FDA9544
:10219000EAF70E942D0EC2CFC77081E001C0880F00
:1021A000CA95EAF7F6CFA0E0B0E0E9EDF0E10C94D3
:1021B000EE267C01FC018481811509F44DC061E0AB
:1021C000C7010E946E07EC01F7018581FE01E05412
:1021D000FE47EF30F10508F0AFC2E95AF54D0C9417
:1021E0002727811549F180913A0281FB992790F9BF
:1021F00090937605982F907285FB222720F92093E3
:10220000750581FD2EC09115A1F185EE0E94080E85
:102210008FE20E94D40D8FE20E94080E8091760515
:10222000811519F081EE0E94D40D809175058115FC
:1022300019F085EE0E94D40D8091AB058770811551
:1022400059F0F7018581811539F08091AD0582FF44
:1022500003C082E00E941C05CDB7DEB7E8E00C9415
:102260000A2781EE0E94080E80917505811581F282
:10227000CCCF8FE10E94D40D8FE10E94080EDCCFFD
:102280008115D1F280913A0281FB992790F99093C0
:102290007605982F907285FB222720F920937505EB
:1022A00081FD0AC0911581F085EE0E94080E8EE234
:1022B0000E94D40D8EE2B0CF81EE0E94080E809174
:1022C00075058115A1F3F0CF83E20E94D40D83E25E
:1022D000D4CF811509F4B0CF80913A0281FB9927C0
:1022E00090F990937605982F907285FB222720F91C
:1022F0002093750581FD10C09115B1F085EE0E9407
:10230000080E81EE0E94D40D83E20E94D40D83E278
:102310000E94080E81EE80CF81EE0E94080E80910F
:102320007505811571F3EACF84E20E94D40D84E231
:10233000A4CF811509F480CF80913A0281FB9927BF
:1023400090F990937605982F907285FB222720F9BB
:102350002093750581FD0DC0911599F085EE0E94C1
:10236000080E81EE0E94D40D84E30E94D40D84E314
:10237000CFCF81EE0E94080E80917505811589F3FB
:10238000EDCF85E20E94D40D85E277CF811509F467
:1023900053CF80913A0281FB992790F9909376056B
:1023A000982F907285FB222720F92093750581FDD7
:1023B0000DC0911599F085EE0E94080E81EE0E94E5
:1023C000D40D85E20E94D40D85E2A2CF81EE0E9459
:1023D000080E80917505811589F3EDCF86E20E9484
:1023E000D40D86E24ACF811509F426CF80913A02B6
:1023F00081FB992790F990937605982F907285FB31
:10240000222720F92093750581FD0DC0911599F0C3
:1024100085EE0E94080E81EE0E94D40D86E20E9495
:10242000D40D86E275CF81EE0E94080E809175056D
:10243000811589F3EDCF87E20E94D40D87E21DCF8D
:10244000811509F4F9CE80913A0281FB992790F920
:1024500090937605982F907285FB222720F9209380
:10246000750581FD0DC0911599F085EE0E94080E4D
:1024700081EE0E94D40D87E80E94D40D87E848CFF2
:1024800081EE0E94080E80917505811589F3EDCFCC
:102490008DE20E94D40D8DE2F0CE811509F4CCCEF0
:1024A00080913A0281FB992790F990937605982FB5
:1024B000907285FB222720F92093750581FD0DC0C0
:1024C000911599F085EE0E94080E81EE0E94D40DC0
:1024D00083E30E94D40D83E31BCF81EE0E94080E9C
:1024E00080917505811589F3EDCF81EE0E94D40DA1
:1024F0008DE20E94D40D8DE20E94080E81EEBDCEC9
:10250000811509F499CE80913A0281FB992790F9BF
:1025100090937605982F907285FB222720F92093BF
:10252000750581FD0DC0911599F085EE0E94080E8C
:1025300081EE0E94D40D80E30E94D40D80E3E8CEAA
:1025400081EE0E94080E80917505811589F3EDCF0B
:1025500080E30E94D40D80E390CE811509F46CCE07
:1025600080913A0281FB992790F990937605982FF4
:10257000907285FB222720F92093750581FD0DC0FF
:10258000911599F085EE0E94080E81EE0E94D40DFF
:1025900082E30E94D40D82E3BBCE81EE0E94080E3E
:1025A00080917505811589F3EDCF82E30E94D40DEA
:1025B00082E363CE811509F43FCE80913A0281FB1C
:1025C000992790F990937605982F907285FB222792
:1025D00020F92093750581FD0DC0911599F085EEC8
:1025E0000E94080E81EE0E94D40D89E80E94D40D4D
:1025F00089E88ECE81EE0E94080E809175058115C6
:1026000089F3EDCF87E80E94D40D87E836CE811597
:1026100009F412CE80913A0281FB992790F99093A8
:102620007605982F907285FB222720F92093750557
:1026300081FD0AC0911581F085EE0E94080E84E3A9
:102640000E94D40D84E3E8CD81EE0E94080E8091B3
:1026500075058115A1F3F0CF83E30E94D40D83E3C8
:102660000CCE811509F4E8CD80913A0281FB9927BF
:1026700090F990937605982F907285FB222720F988
:102680002093750581FD0DC0911599F085EE0E948E
:10269000080E81EE0E94D40D8FE10E94D40D8FE1CF
:1026A00037CE81EE0E94080E80917505811589F361
:1026B000EDCF81EE0E94D40D84E20E94D40D84E21D
:1026C0001BCF811509F4B8CD80913A0281FB99277F
:1026D00090F990937605982F907285FB222720F928
:1026E0002093750581FD0DC0911599F085EE0E942E
:1026F000080E81EE0E94D40D8EE20E94D40D8EE26F
:1027000007CE81EE0E94080E80917505811589F330
:10271000EDCF81EE0E94D40D8FE20E94D40D8FE2A6
:10272000EBCE811509F488CD81EE0E94D40D89E3AA
:102730000E94D40D89E3E0CE811509F442C0F7016F
:102740009081818110E2CC33D10520F4FE01E45068
:10275000FE4F10811F921F93DF93CF931F929F9381
:102760001F928F9382E991E09F938F931F9288E14C
:102770008F938EE895E09F938F930E945A278091C4
:102780008C0590918D05EDB7FEB73E960FB6F89487
:10279000FEBF0FBEEDBF8431910551F444E150E01E
:1027A00060E270E087E795E00E944C2780E090E0CF
:1027B000FC01E958FA4F1083019690938D058093A0
:1027C0008C05F7018581FE01E851FC47E730F105F2
:1027D00008F5EA59F54D0C94272726E241EE61EE03
:1027E0000E94731029CD27E245EE65EEF9CF26E26F
:1027F00041EE60EEF5CF27E245EE64EEF1CF26E242
:1028000041EE62EEEDCF27E245EE66EEE9CF28E23B
:1028100041E0EBCF811509F4AAC31092A6059E01F1
:1028200030572332310508F089C384E090E00E94DC
:10283000012A9093AD058093AC05FE01E150F0476D
:10284000E232F10520F4E359F54D0C9427278091ED
:10285000AC0581608093AC056091AC057091AD05CD
:1028600084E090E00E94352A0E940E0BE5CC809116
:10287000AD0588608093AD05EFCF8091AC05826097
:10288000E9CF8091AC058460E5CF8091AC0588608C
:10289000E1CF8091AD058160EDCF8091AD05826083
:1028A000E9CF8091AC058061D5CF8091AC05806285
:1028B000D1CF8091AC058064CDCF0E940E0B80916A
:1028C000AC058068C7CF8091AC058C60C3CF809188
:1028D000AD058360CFCF8091AC058E7FBBCF80915B
:1028E000AD05877FC7CF8091AC058D7FB3CF809139
:1028F000AC058B7FAFCF8091AC05877FABCF80914C
:10290000AD058E7FB7CF8091AD058D7FB3CF809120
:10291000AC058F7E9FCF8091AC058F7D9BCF809142
:10292000AC058F7B97CF0E940E0B8091AC058F7703
:1029300091CF8091AC05837F8DCF8091AD058C7F49
:1029400099CF8091AC05992782FF939590FB82F9EE
:1029500090FB83F97FCF8091AD05982F909590FBE8
:1029600080F990FB81F986CF9091AC05892F8F7B00
:1029700096FF80646FCF0E940E0B9091AC05892F5B
:1029800097FB87F9805866CF61E08EE090E00E9467
:10299000172A62CF60E0F9CF9091AC05892F8F7E26
:1029A00094FF806157CF9091AC05892F8E7F90FF67
:1029B000816050CF9091AD05892F877F93FF88600C
:1029C00059CF9E01205E324520323105A8F4811195
:1029D0002AC0CF7181E090E09C0102C0220F331F1A
:1029E000CA95E2F7E901622F83E090E00E94172A7E
:1029F000CE010E94760420CC8115A9F0CA353CE7AF
:102A0000D30709F4A4C008F06DC0C1309CE7D90712
:102A100009F49BC0C330ECE7DE0709F490C0C11590
:102A2000DC4709F470C0F70187819085009709F4AD
:102A300092C00E944A06D82FC92FF7010581C6808F
:102A4000C2948FE0C8228091AB058770811501F197
:102A5000D02E0115F1F0892F807F803461F080E263
:102A60008D0F8830A8F0892F807E803221F4D230FB
:102A700078F0C11469F08091AD0582FF09C082E051
:102A80000E941C058091AB058770DD24D3948111D1
:102A9000D12C8C2F82958F70883009F43BC108F0BF
:102AA00071C0823008F480C0825F8F70823008F479
:102AB000B3C0D11409F465C18091AB0580FD61C13B
:102AC000F70115828695869586950E948804C70130
:102AD0000E94D3108091AB058695869586950E94BD
:102AE00098044FC1CB352CE7D20799F18091AD0501
:102AF000002482FF0394802DCC35DC4709F093CF6E
:102B00000E94BB0A90CF0E940E0B8FEF94E3ECE083
:102B100081509040E040E1F700C0000087E797E770
:102B2000909301088093000888E19AE00FB6F8942A
:102B3000A895809360000FBE90936000FFCF6FEF69
:102B40007FEF80E090E00E94352A0E941C0B81E01C
:102B5000D7CF80E0D5CF858100811181811569F0C3
:102B6000C8010E943A07C82F682FC8010E94AA0412
:102B7000B8018C2F0E943C055CCFC8010E94DF0485
:102B8000C82FF6CF893009F455C18A5F8F70823023
:102B900008F08FCFD23F09F05EC18C2F8F710111E9
:102BA00057C10E948804EBC01C2F1F70C03110F069
:102BB0001295107F0115B9F0111569F080E28D0FA3
:102BC000883010F0D11109C08091A805812B809325
:102BD000A8050E94D20A8D2F41C08091AE05812B9D
:102BE0008093AE05F6CF8D2F0E94080E111509F4C3
:102BF00060CF80E28D0F883010F0D11104C0812F9A
:102C00000E94340506C010958091AE058123809303
:102C1000AE050E94D20A4DCF1C2F1F70C07FC0325C
:102C200011F01295107FD11549F0D13009F452C03E
:102C3000011509F45EC0C114F9F0CDCF8091AD0546
:102C400082FD16C0011569F0111539F08091A805B3
:102C5000812B8093A8050E94D20A80E00E94D40DA7
:102C600028CF80E00E94080E111509F422CFC7CFAB
:102C70000115A1F0C11004C0812F0E94230E19CFAD
:102C8000F1E0CF1216CF8091A905912F9823191743
:102C900009F40FCF812B8093A9050BCFC11009CF69
:102CA000812F0E942D0E9091A905812F89238115D6
:102CB00029F0812F809589238093A9058091AA0509
:102CC000912F9823911509F4F4CE109518231093A1
:102CD000AA05EFCE011529F026E0C21608F0E9CECC
:102CE000CBCF35E0C31608F0E4CE812F0E942D0E25
:102CF000E0CEC114D1F3D93349F48FEF97EEE3E07E
:102D000081509040E040E1F700C000008D2F0E940C
:102D1000080ECFCE8C2F8370811146C001112FC0B9
:102D20004D2F429546954770440F440F2D2F2F701D
:102D300030E0042E02C0220F331F0A94E2F780E035
:102D400090E0D4FF09C08FE090E002C0880F991F87
:102D50004A95E2F780959095C695C695C370C230A6
:102D6000D1F0C330A9F04091260650912706C1301A
:102D700069F0822B932B842395230E9476040E9472
:102D8000380860E0C7010E946E0766CA242B352B05
:102D9000822B932BF2CF822B932B209126063091FE
:102DA000270682279327E9CF011591F1C0FFE7CFCE
:102DB0004D2F429546954770440F440F2D2F2F708D
:102DC00030E0042E02C0220F331F0A94E2F780E0A5
:102DD00090E0D4FF09C08FE090E002C0880F991FF7
:102DE0004A95E2F780959095C695C695C370C23016
:102DF000C1F0C33099F04091280650912906C130A6
:102E000059F0822B932B842395230E947B04B7CF08
:102E1000823008F4B4CFCCCF242B352B822B932BCC
:102E2000F4CF822B932B20912806309129068227FC
:102E30009327EBCFCF70011539F08C2F0E948804B7
:102E40008D2F0E94230E9BCF8D2F0E942D0E8C2F35
:102E50000E94980494CF70F4D03FC9F0D13F91F014
:102E6000011509F457C0C11409F451C08D2F0E94F7
:102E7000D40D85CFD33F29F1D43F91F79091AD0583
:102E800092FD2DC08C2F8F71011511F38ACE011583
:102E9000A9F0F5E0CF1608F072CFCF7181E090E095
:102EA0009C0102C0220F331FCA95E2F7E90180910D
:102EB00028069091290682279D27A7CF36E0C316C2
:102EC000EACF80E090E0011509F49FCFCF7181E057
:102ED00090E002C0880F991FCA95E2F796CF0115BE
:102EE00061F08C2F8F7192FF5CCE982F990F990F04
:102EF000990F93609093AB0554CE81E00E941C051E
:102F000082E0C81608F43BCF0E941C0538CF8C2FF6
:102F10008F7147CEC11479F0D93349F49FEFE7EEB2
:102F2000F3E09150E040F040E1F700C000008D2F49
:102F30000E94080E24CF8C2F8F718ACFC631FCE7F8
:102F4000DF0709F03ECD8091A8058A7A91E08111D2
:102F500001C090E09093A70565E3811101C069E28B
:102F60008AE392E00E9449080E94D20A65C9C631EC
:102F70002CE7D20709F025CD8091A70565E38111E3
:102F800001C069E28AE392E00E946308EDCF80917C
:102F90005205803178F480915105811559F0E09106
:102FA00003052091020530914D0540914C0559E0F3
:102FB0002E1301C008956E2F70E05E9FF001112462
:102FC000DF01AC5FBA4F14968C911497811561F1B3
:102FD00011968C911197831327C08C91841324C070
:102FE00015968C91159781111FC012968D919C9109
:102FF000A0914E05B0914F058A1B9B0B883C910513
:1030000098F4809152058F70806180935205E65F3D
:10301000FA4F80818F70806180838CE495E00E94FC
:10302000D3100E9412050895FB013196E770C0CFBE
:10303000AFE0B0E0EEE1F8E10C94E9268C0186E027
:10304000F801DE011A9601900D928A95E1F7F801D8
:10305000F580C4808CE4882E85E0982E7090500511
:10306000711020C0C114D9F0F11409F438C1C8019D
:103070000E94A807811509F432C189E0F801D40142
:1030800001900D928A95E1F7F1E0CF1206C0809190
:103090004C0590914D050E9499070E94C717FF2487
:1030A000F3945DC0E080A280B380D0905105809100
:1030B0004E0590914F059501281B390BD11409F449
:1030C000E8C0283C310508F0B4C0C11441F3909128
:1030D0004D05C18080915205803108F061C0C91250
:1030E0001DC090914C059E1119C0409153055091FF
:1030F0005405278130854217530781F4F1104AC0E7
:103100008F708061809352058CE495E00E94D3100B
:1031100080915205F8018683F12C21C0F1103AC04C
:1031200040E06C2D8E2D0E94100A40E06C2D8E2DFB
:103130000E94100AF82E8111EFCF8A859B850E948C
:103140009907292F22952F70903470F49F702230A8
:10315000A0F09115B1F0F8019681903190F48F2D87
:103160002F96EDE00C9405272A5F2F70223068F02F
:10317000C8010E94D310FD2CF2CF911511F08115DA
:1031800071F3805E883058F3F3CF803F40F3815F66
:103190008330F9CF80915205816080935205BCCF76
:1031A000C9121CC090914C059E1118C04091530546
:1031B00050915405278130854217530779F4F11057
:1031C0000DC08683C8010E94D31089E0F801ACE4E9
:1031D000B5E001900D928A95E1F761CFC8010E9498
:1031E000A807811509F47BC0F11409F478C0809117
:1031F00052058032A8F020914C0530914D053A835C
:103200002983BC82AB827D821E828F83809153058D
:103210009091540599878887CE0101960E94D3101A
:1032200089E0F801ACE4B5E001900D928A95E1F7F0
:1032300034CF80915205803150F48CE495E00E94A7
:10324000D31089E0F40111928A95E9F765CFC11492
:1032500009F425CF20914D0591812913BFCF90917D
:103260004C059E11BBCF40915305509154052781C9
:1032700030854217530709F0B1CFF110AFCF8683E5
:10328000C8010E94D31089E0F40111928A95E9F7F0
:1032900006CF283C3105A8F6C11409F400CFF1147B
:1032A000F1F090914D05818198130FC080914C05EC
:1032B0008E110BC020915305309154058781908564
:1032C0002817390711F489E082CFC8010E94A807A6
:1032D0008111A6CF80915205816080935205C8016B
:1032E0000E94D310DCCEA2E1B0E0E9E7F9E10C9452
:1032F000F2260A871B872C873D874E875F87688B5E
:10330000798B8A8BCE010A960E941818811128C0E9
:10331000209102053091030589E0FE013A96DE0115
:10332000119601900D928A95E1F78E858115C1F075
:10333000822F90E001968770992738171906D9F0E7
:1033400099E0929FD0011124AC5FBA4FFE013196F3
:1033500001900D929A95E1F7809302050E94120563
:1033600019E08091030590910205891312C06296BD
:10337000E4E00C940E270E940E0B109202051092AE
:10338000030589E0ECE4F5E0DF011D928A95E9F799
:10339000E7CF189FC00111248C5F9A4F0E94181824
:1033A000811529F38091030590E001968770992794
:1033B00080930305D6CFEF92FF920F931F93CF9385
:1033C000DF9380912306E0916C02CDE0811131C042
:1033D000CDB7DEB7E6E00C940C27D1E0DE0FD0933A
:1033E0006C02EE2EF12CCE9FF0011124E554FA4F21
:1033F00084818115E9F087819085892B21F481856D
:103400009285019659F40081118122813381448192
:1034100055816681778180850E947319CE9DF00168
:10342000CF9DF00D1124E554FA4F14821092AE0591
:10343000ED2F80912306E81780F210922306109258
:103440006C02C6CFA0E0B0E0E8E2FAE10C94E4261A
:10345000C091BA0597E0A92EEE24E394F12C3DE04B
:10346000B32E44E0242E8091B9058C1309C00E942C
:10347000DB190E94F607CDB7DEB7E2E10C94002716
:10348000D0E0FE01EE0FFF1FE155FA4F80819181E0
:1034900000E010E08530910538F4A89E8001A99ED7
:1034A000100D112402591E4FF8012481211154C01E
:1034B00030902306ABEBB5E040E050E0612C4315C3
:1034C00008F048C01B96CD90DC901C97F8018080D6
:1034D000918044244A9455245A94712C272D30E02D
:1034E000F401E70DF11DE70DF11D65917491C6160C
:1034F000D70609F09201672B19F073942901EECFDA
:103500002F3F320779F1B70102C0660F771F2A9566
:10351000E2F7662A9701072C02C0220F331F0A9494
:10352000E2F72150310962161306C9F4F80122812D
:103530003381B49EF001B59EF00D1124E554FA4F8D
:10354000308727832482108211829287818721E02D
:10355000F80125830E9407082196C37084CF149632
:103560001C9214974F5F5F4F1D96A9CF10922506AE
:1035700010922406109291018091B9058093BA05AA
:103580000E94F6070E94DB190895AEE1B0E0EBEC73
:10359000FAE10C94E4264B8B5C8B6D8B7E8B8F8BCE
:1035A000B92E988FA92E91111092AE05188A198AFA
:1035B0001A8A86E0FE017396DE011A9601900D923A
:1035C0008A95E1F75F885114D9F05E86BF8661E085
:1035D000CE010A960E946E0761E0CE010A960E9413
:1035E0006E0761E0CE010A960E946E074C0180359D
:1035F0002CE7920799F4A11421F181E080939101C5
:103600005E86BF860A851B852C853D85452D5B2DF5
:10361000688979898A890E947319CCC081353CE711
:10362000930729F4A11469F00E94B61AE9CF8235F4
:103630009C4739F4A11429F0809191018111F4CFB4
:10364000DCCF4EE6E42E41E0F42E412C612C712CAF
:10365000D7012D913C916FEF9FEF80E0C82ED12CC8
:10366000F901E80FF11DE80FF11D45915491841601
:10367000950611F0C62ED92E452B21F08F5F6C2DAB
:103680009D2DECCF10E0BFEFCB16DB0609F44EC04A
:10369000F701448110919101411110E0D701159675
:1036A0003C90159716969C911697A11409F40BC19E
:1036B000111509F408C1311017C021E030E00C2CBD
:1036C00001C0220F0A94EAF7922B16969C93209140
:1036D000B7053091B8052233310530F422E330E0EC
:1036E0003093B8052093B705E1E0F0E002C0EE0F9B
:1036F000FF1F8A95E2F7CF010197D70116962C910B
:103700002817190699F4C0902406D0902506C114F4
:10371000D10409F453C00E945D108C199D09C39710
:1037200008F44CC081E0F701848311E0412ABFEF27
:103730006B1A7B0AE7E0EE0EF11CF5E06F167104E0
:1037400009F086CFA11409F41EC1411409F41BC16C
:103750000E945D1090932506809324068091230695
:10376000883040F591E0980F9093230699E0FE0190
:103770003A96DE01119601900D929A95E1F75D82DD
:10378000BE822DE0829FC001112485549A4F29E00A
:10379000FE013196DC0101900D922A95E1F72FEFA1
:1037A0003FEFDC011A963C932E9319971C969C923E
:1037B0008E921B976E96E2E10C9400274091BA0519
:1037C0008091B905942FA0E0B0E057E061E0481780
:1037D00009F44FC0242F30E03A8F298FF901EE0F02
:1037E000FF1FE155FA4F20813181A0E0B0E0253084
:1037F000310538F4529FD001539FB00D1124A259C6
:10380000BE4F2D913C9111973E8F2D8FC12C70E0B2
:10381000D12CED8DFE8DED0DF11DED0DF11D2590E1
:10382000349021143104E1F0F7010190F081E02D92
:10383000FC8FEB8F70E007C0E1E02216330609F041
:10384000E0E0CE2A7F5FEB8DFC8DE70FF11DE70FE7
:10385000F11D259134912115310571F7D394D9CFFC
:10386000C11471F17D15C8F4E1E0D7011496EC9311
:10387000D7019093BA05AE15BF0509F457CF90E074
:10388000FC01EE0FFF1FE155FA4F71826082019635
:10389000837099278093B90549CF109751F01496FA
:1038A0006C931497AE15BF0519F3491302C09F5FBF
:1038B0009370298D3A8D2F5F3F4F422F437087CFF2
:1038C000A0E0B0E0F6CF292F30E0311024C061E055
:1038D00070E002C0660F771F8A95E2F7CB0101976F
:1038E0008217930791F010E0E1E0F0E002C0EE0FE4
:1038F000FF1FCA94E2F76F01C094D70116968C910E
:1039000016978C2116968C9311CF411569F3C3013C
:103910000E940708E8CFA9010C2C02C055954795D5
:103920000A94E2F7C901019782239323892B41F579
:1039300040FF26C0D70112968D919C91892BD9F01A
:1039400087E0FE013196DF011D928A95E9F70E941A
:103950005D109C018B839C8384E08D83F7019281B1
:103960008381792F9887898709811A8144E05E8154
:103970006F810E947319D70115961C92132DB4CF35
:10398000142F1170B1CF9091BA058091B905981795
:1039900039F00E94221AB1E04B1609F40BCF30CE59
:1039A0000E94DB1910922506109224060E94F60749
:1039B000F2CFA6E0B0E0EFEDFCE10C94F2260E941D
:1039C0005D108C018091F6049091F70480179107A7
:1039D00079F019821A820E945D10BC0149815A81D6
:1039E00080E090E00E94C51A1093F7040093F6045B
:1039F0002696E4E00C940E27AFE0B0E0E2E0FDE1B3
:103A00000C94E526FE0131968AE0DF011D928A952D
:103A1000E9F787EEE82E81E0F82E8F019CEE692E03
:103A200091E0792E2F01AA24A394B12C32EF832E9A
:103A300031E0932EF70181917F018F3F09F43EC061
:103A4000F894E82FE295EF70F0E021A18F70A501C6
:103A500002C0440F551F8A95E2F7CA01922F982B96
:103A600091A392A18095892382A3789400C0ECEE63
:103A7000F1E031E0312C21912F3F79F0A22FA29576
:103A8000AF70A05EB0E08C9190E02F7002C0959571
:103A900087952A95E2F780FF76C080E0382A330FB9
:103AA0008E169F0641F7F70182918F3F11F00E9419
:103AB000DD0750EA5A95F1F7D8013C920F5F1F4F8E
:103AC0006E147F0409F0B6CF4AE050E0B2018DE6F3
:103AD00092E00E9436276C01892B41F08AE0F201C6
:103AE000ADE6B2E001900D928A95E1F7009178027F
:103AF00010E004581D4FC114D10409F446C081E000
:103B000080934B020E945D1090934A028093490279
:103B10008091F004811509F492C07E01BBE0EB0EA8
:103B2000F11C85E0F70111928A95E9F780914C022A
:103B30008A3008F04EC04FE85EE0B701C8010E942D
:103B4000810A811509F469C044E35EE0B701C80148
:103B50000E94810A811509F460C010924C02809184
:103B6000770290E045E050E0B70184589D4F0E94F5
:103B7000362721E020934802892B09F041C02F9677
:103B8000E1E10C940127832F89CF80914B028115AD
:103B900009F4BECFE0904902F0904A020E945D1005
:103BA0008E199F09059708F4B3CF45E050E06DE604
:103BB00072E0C8010E943627892B41F085E0EDE6CE
:103BC000F2E0D80101900D928A95E1F710924B0234
:103BD0009FCFC0904602D09047020E945D108C1982
:103BE0009D09843F914008F0A6CF8091480281153D
:103BF00031F285E0D7011D928A95E9F710924802CB
:103C0000A0917702B0E0A458BD4F85E0FE013B963D
:103C100001900D928A95E1F7B2CF80914C028F3FCF
:103C200039F40E945D109093470280934602DDCFE5
:103C30008F5F80934C028A3008F491CFF2CF85E0F9
:103C4000F801AEEDB4E001900D928A95E1F78EEDAA
:103C500094E00E946D098093DD04C090E304D0904D
:103C6000E404E090E504F090E60480914202909133
:103C70004302A0914402B0914502C816D906EA0653
:103C8000FB0609F47CCFC0924202D0924302E0923C
:103C90004402F09245020E947408C61AD70AE80A44
:103CA000F90AC092F204D092F304E092F404F09284
:103CB000F50465CFCDB7DEB72A970FB6F894DEBF0F
:103CC0000FBECDBF85B7806885BF85B7806885BFCB
:103CD00084B7877F84BF0FB6F894A8958091600061
:103CE000886180936000109260000FBE80E890E0D1
:103CF0000FB6F89480936100909361000FBE81E04D
:103D0000809303018BED97E0909339028093380202
:103D10000E944E090E94B6098091E200846080935F
:103D2000E200789480917B02811599F08091E900FE
:103D30001091EC008F70179511271795182B109282
:103D4000E9008091E80083FD0E94320B1F70109300
:103D5000E90082E084BD93E095BD9AEF97BD809322
:103D60006E001092F2041092F3041092F404109278
:103D7000F5048091D80080618093D8002AE12A95CB
:103D8000F1F700C08091D900182F117080FD04C098
:103D90000E944E0910927B021093F0041093F104DC
:103DA0001093040111110E946E25809104018091ED
:103DB000040190E0811101C095E09093780285E0C4
:103DC000891B8093770207EE11E0D8018D918D0158
:103DD0008F3F11F00E94DD07B1E00C3E1B07A9F7F1
:103DE0000CEE11E0F80181918F018F3F11F00E94DC
:103DF000DD07F1E0023F1F07A9F78AE0ECE7F2E0F8
:103E0000DF01282F1D922A95E9F7EDE6F2E0DF01A8
:103E10001D928A95E9F780E090E00E94012A853E94
:103E20009E4F09F461C065EE7EEF80E090E00E9455
:103E3000352A60E082E090E00E94172A81E090E05D
:103E4000909327068093260661E083E090E00E942D
:103E5000172A60E074E184E090E00E94352A60E077
:103E600086E090E00E94172A60E087E090E00E94E0
:103E7000172A40E050E0BA0188E090E00E94292A29
:103E800060E083E290E00E94172A60E08CE090E01E
:103E90000E94172A60E08DE090E00E94172A1982A4
:103EA0001A821B821C821D821E821F82188648E095
:103EB00050E067E170E0CE0101960E94072A40E0E1
:103EC00050E0BA018FE190E00E94292A40E050E0E2
:103ED000BA018FE090E00E94292A40E050E0BA0148
:103EE00083E190E00E94292A82E090E00E94F92973
:103EF0008093860284E090E00E94012A9093AD05B1
:103F00008093AC0583E090E00E94F92990E00E9444
:103F100076048091F00491E08927880F8093CC0487
:103F200080E8809393020E94F3236BE070E083ECBF
:103F300096E00E942C0F811509F43FC08091CC04BB
:103F400065E070E081FDA3C08EEB96E00E942C0F2F
:103F5000811599F16DE070E08CEA96E00E942C0FDB
:103F6000811559F10E947408DC01CB01805A9541FA
:103F7000AF4FBF4F8093D0049093D104A093D2044D
:103F8000B093D304ECECF2E080E092E0DF019C011E
:103F90001D9221503040E1F7F0939202E09391029C
:103FA0008FEF9FEF9093CF048093CE0481E08093B6
:103FB000D7048093D4041092CD048091F004811131
:103FC00002C00E94712585E091E09093F9048093EE
:103FD000F80448E1242E312C80917B02853049F48D
:103FE00080917B02853009F455C00E940E0B0E941F
:103FF00038080E94FC1C07E812E03CE7E32E32E0A0
:10400000F32ED701F80191918D9122E0E139F20769
:1040100009F474C09817B9F38090F004D12CD7013B
:10402000CD907D01F80191908F019C1439F19C2471
:10403000B12CAA24A3948A2D89218115C1F0811461
:10404000B1F0B982DA820E945D109C838B83F1E02B
:10405000FD8391E08A2D8C21811101C090E09E8327
:1040600049815A816B817C818D810E94C51AB394EC
:10407000AA0C26E0B212DFCFF801C292D3943AE044
:10408000D312CDCF0E948008DD24D3943CC089EBAD
:1040900096E05CCF80917B02843021F10E94390F41
:1040A0001092790230E40FB6F894A895209260003F
:1040B0000FBE3093600083B7817F846083BF83B776
:1040C000816083BF7894889583B78E7F83BF0FB656
:1040D000F894A895809160008861809360001092A8
:1040E00060000FBE0E94FC1CECE7F2E081918111A0
:1040F000B2C182E0E638F807C9F772CF98138CCFC7
:104100000E94D91CD12C8091F004811539F1809145
:104110009101811519F100912406109125060115D0
:104120001105E1F00E945D10801B910B2091B705F5
:104130003091B8052817390788F49091BA05809115
:10414000B905981709F450C00E94221A1092B805B8
:104150001092B70510922506109224068091D7047C
:10416000811509F48DC00091D5041091D6040E94E8
:104170005D10801B910BC29708F463C00E945D1014
:104180009093D6048093D5048CEC92E090939202A5
:10419000809391028091F004811509F483C080918D
:1041A0002806909129068430910509F478C028F5F5
:1041B000009761F16CEB71E08230910549F19F93BA
:1041C0008F9387ED91E09F938F931F9288E18F9358
:1041D00084E992E09F938F930E945A270FB6F89438
:1041E000DEBF0FBECDBF18C00E94DB19109225069E
:1041F000109224060E94F607B1CF8830910519F07D
:104200008E309105E1F669EC71E002C063EA71E07D
:1042100084E992E00E94532784E992E00E941E10F4
:1042200081E00E94EF0F8EE895E00E941E1081E071
:104230000E94EF0F87E795E00E941E1081E00E9428
:10424000EF0F8091CE049091CF04892B81F580915E
:10425000D4048115A9F00E9474080091D004109133
:10426000D1042091D2043091D304601B710B820BD6
:10427000930B6F3F7F4F8F4F9F4710F40E94390F72
:10428000D1100E944B0F0E9438089091D8048917D2
:1042900009F4A2CE8093D8040E9474089DCE6FEAE0
:1042A00071E0B6CF8FE091E00E941E10CACF8091DE
:1042B000D704811561F28091CD048111C8CF0E948D
:1042C0004B0F2091CE043091CF042115310509F414
:1042D000BECF10E041E050E0812F90E07A01012E46
:1042E00002C0EE0CFF1C0A94E2F7B70162237323AD
:1042F000672B11F41F5FF0CF2091CC0420FF98C0F2
:10430000912F990F990F990F37E0390F80E023E033
:1043100090935101809354013093520120935501A1
:1043200024E630E047E050E06FE471E088E70E9467
:104330002924892B09F08BCF90E2199FA001112429
:104340008091CC0480FF80C0ECEAF2E080E2DF01E3
:104350001D928A95E9F7E6EFF1E0FA87E98702EF27
:1043600011E087E0982E88248394A985BA856D9101
:10437000BA87A987F80181918F01840F952F911D2C
:104380009C0124533D4F2901E62FF0E0E455FD4FF9
:1043900020E030E0692C621AC82C022E01C0CC0C3F
:1043A0000A94EAF7520190E0D5018D915D018C21CC
:1043B000662D691B677070E0B82F062E01C0BB0F19
:1043C0000A94EAF77195619571096770772701C0C2
:1043D00086956A95EAF78B2B6081862B80839F5F99
:1043E000983011F72F5F3F4F31962830310591F605
:1043F000E985FA85EA5FF14009F0B7CF04E610E0FD
:1044000020E230E04CEA52E060E488E70E94C324F6
:10441000892B09F01CCFE094F0948091CE04909108
:10442000CF048E219F219093CF048093CE040FCF91
:104430009695879596958795282F912F9295990F08
:1044400090763FE1390F64CF44535D4F04E610E0AE
:1044500020E230E0D9CF80917A02811509F4C0CDF5
:1044600090E199BDA2E1A9BD09B400FEFDCF809104
:10447000D8008F7D8093D8008091E0008260809387
:10448000E0008091E00081FDFCCF0E940E0BA8CDE2
:1044900078941F921FB61F9211248F939F93AF930E
:1044A000BF938091680290916902A0916A02B091D5
:1044B0006B020196A11DB11D809368029093690261
:1044C000A0936A02B0936B02BF91AF919F918F91BD
:1044D0001F901FBE1F9018951F920F920FB60F923C
:1044E00011242F933F934F935F936F937F938F93F9
:1044F0009F93AF93BF93EF93FF938091E10082FF6F
:1045000009C08091E20082FF05C08091E1008B7FAD
:104510008093E1008091DA0080FF24C08091D80070
:1045200080FF20C08091DA008E7F8093DA00809136
:10453000D90080FFA8C080E189BD82E189BD09B4AE
:1045400000FEFDCF81E080937B02809157028111B4
:1045500009C00E944E090E94B6098091E200846061
:104560008093E2008091E10080FF1AC08091E20018
:1045700080FF16C08091E2008E7F8093E2008091E0
:10458000E20080618093E2008091D8008062809395
:10459000D80019BC85E080937B0283E080930301FF
:1045A0008091E10084FF2FC08091E20084FF2BC046
:1045B00080E189BD82E189BD09B400FEFDCF809113
:1045C000D8008F7D8093D8008091E1008F7E80930A
:1045D000E1008091E2008F7E8093E2008091E20012
:1045E00081608093E20080915602811509F451C0E8
:1045F00084E080937B0280917B02843009F051C07B
:1046000082E0809303018091E10083FF2BC08091C1
:10461000E20083FF27C08091E100877F8093E10063
:1046200082E080937B02109256028091E1008E7F9F
:104630008093E1008091E2008E7F8093E200809180
:10464000E20080618093E20060E080E00E948609E1
:104650008091F00088608093F00081E080930301F6
:1046600080930201FF91EF91BF91AF919F918F9144
:104670007F916F915F914F913F912F910F900FBE5E
:104680000F901F90189519BC10927B021092570240
:1046900069CF8091E30087FF02C083E0AACF81E069
:1046A000A8CF81E0AECF1F920F920FB60F921124C8
:1046B000EF92FF920F931F932F933F934F935F932C
:1046C0006F937F938F939F93AF93BF93CF93EF930A
:1046D000FF9309EE10E0F8018081C091EC008F702B
:1046E000C795CC27C795C82B108280EFE82EF12CF8
:1046F000F7018081877F808378940E94320BF801D4
:104700001082F701808188608083CF70F801C083B8
:10471000FF91EF91CF91BF91AF919F918F917F9139
:104720006F915F914F913F912F911F910F91FF904A
:10473000EF900F900FBE0F901F901895FF920F9360
:104740001F93CF93DF93182FEB011092BC0084EAE4
:104750008093BC000E945D10082FF92E8091BC0050
:1047600087FF28C08091B900887F883029F0809128
:10477000B900887F8031A1F51093BB0084E8809355
:10478000BC000E945D10182F092F8091BC0087FF8C
:104790001FC02091B900287F80E090E0283199F077
:1047A00081E090E0203411F480E090E091958195D3
:1047B000910909C0802F9F2D0E946910C817D90741
:1047C00068F68EEF9FEFCDB7DEB7E5E00C940D27CE
:1047D000812F902F0E946910C817D907B0F6F1CF2A
:1047E0008FEF9FEFF0CF1092B9008CE08093B8006C
:1047F00008950F931F93CF93DF93EB018093BB003A
:1048000084E88093BC000E945D10182F092F8091CE
:10481000BC0087FF11C02091B900287F81E090E0A3
:10482000283211F480E090E0919581959109DF9113
:10483000CF911F910F910895CF3FDC0741F3812F56
:10484000902F0E946910C817D90708F78EEF9FEFC5
:10485000EECFA0E0B0E0EFE2F4E20C94E926782E8F
:10486000B62EA72E6A01E9010E945D104C01C431E9
:10487000D10528F1CF3FDC0731F1CE0164E170E0D2
:104880000E94D026F62EE72E6F2D7E2D872D0E94BA
:104890009E238C01892BD1F4EB2CFA2CCE0CDF1C3F
:1048A000EC14FD0419F001151105D1F084E9809391
:1048B000BC00C801CDB7DEB7EDE00C940527FF249E
:1048C000F394E12CE1CF85E0F82EFBCFCF3FDC075E
:1048D000D9F2C4010E946910C817D907A8F6DCCF25
:1048E000BE01F70181917F010E94F9238C01D8CF8D
:1048F000A0E0B0E0EEE7F4E20C94E926782EB62EC4
:10490000A72E6A0189010E945D104C010431110536
:1049100018F10F3F100719F1C80164E170E00E941F
:10492000D026EB01BE01872D0E949E237C01892B9E
:10493000C1F4CB2DDA2DCC0EDD1ECC15DD0519F022
:10494000E114F104C1F084E98093BC00C701CDB744
:10495000DEB7EDE00C940527C1E0D0E0E3CFC5E081
:10496000FCCF0F3F1007F1F2C4010E946910081735
:104970001907C0F6DECFFE018491B8010E94F92329
:104980007C012196DACFA0E0B0E0E9ECF4E20C94EF
:10499000E826682E962E5A01690178010E945D1062
:1049A000782E892E0431110530F10F3F100731F1B7
:1049B000C80164E170E00E94D026162F072F612FF6
:1049C000702F862D0E949E23EC01892BC9F0FFEFEA
:1049D000EF16FF06A1F3872D982D0E946910E816A7
:1049E000F90668F784E98093BC00CE01CDB7DEB745
:1049F000EEE00C94042711E000E0E1CF15E0FCCFDD
:104A0000B701892D0E94F923EC018501CA0CDB1C3A
:104A10000C151D0539F3209729F7B701F80181918D
:104A20008F010E94F923EC01F3CF8EE14A9B02C073
:104A30008A95E1F74A9BFECF08955A9880E28A95BD
:104A4000F1F75A9A0895FC013BE03A95F1F798E0A6
:104A500020E080E031E040E14A95F1F7880F4A9B81
:104A600002C08160232742E04A95F1F7000040E14F
:104A70004A95F1F79A9579F790E19A95F1F799B1FE
:104A800032E03A95F1F7000040E14A95F1F792FBE8
:104A9000992790F992272081920F90830895A1E0A1
:104AA000B0E0E5E5F5E20C94F02619828C017C017A
:104AB000E60EF11C0E941525CE0101960E942325C9
:104AC000F80181938F01EE15FF05A1F781E099812F
:104AD000911180E02196E6E00C940C27529A5A9AA4
:104AE000089552985A9AEA9AE9E6F0E080818F7C1C
:104AF000808308956150770B91E001C0990F6A950A
:104B0000EAF7692F90E021E0611108C0911599F052
:104B10005A9A80E28A95F1F75A980895362F3823E9
:104B2000311539F05A9A922730E23A95F1F76695A5
:104B3000EBCF5A98F9CF5A98ECCFFF920F931F936F
:104B4000CF93DF93EC018C01060F111DF9900E94A9
:104B50001D2568E08F2D0E947A25C017D107B1F777
:104B6000CDB7DEB7E5E00C940D271F920F920FB67C
:104B70000F9211240F931F932F933F934F935F93A3
:104B80006F937F938F939F93AF93BF93EF93FF9315
:104B9000CF93DF930F92CDB7DEB719820E94152510
:104BA000CE0101960E942325082F069506950695AD
:104BB000982F92959570202F2570920F292F237092
:104BC00096959695920F982797708981892B8115D4
:104BD00009F05CC0043008F059C080E18A95F1F713
:104BE0005A9A529A82E08A95F1F700C05A9888E062
:104BF000089F80011124D801AA5ABE4F1696ED9144
:104C0000FC9117973097A9F06091FA017091FB0120
:104C100014962D913C911597260F371F11968D9163
:104C20009C911297680F791F13964C9113978C9152
:104C30000995F801EA5AFE4F6381611551F0209100
:104C4000FA013091FB0184819581820F931F0E94AC
:104C50009D250E941D2580E18A95F1F75A9852986A
:104C60005A9A80E18A95F1F7F801EA5AFE4F60817D
:104C7000611551F02091FA013091FB0181819281FF
:104C8000820F931F0E944F250E9415250F90DF91E0
:104C9000CF91FF91EF91BF91AF919F918F917F91B4
:104CA0006F915F914F913F912F911F910F910F90B5
:104CB0000FBE0F901F9018950F931F93CF93DF9304
:104CC0008C0104970CF064C0F894529A5A9885E0CD
:104CD0008A95F1F70000C02FC695C570802F8570AA
:104CE000C80F8C2F8370C695C69593E0000F111FD7
:104CF0009A95E1F7C80FC8018C2BEC010E941D2585
:104D000000C068E08C2F0E947A2590E19A95F1F717
:104D100052985A9A4A9B35C087E090E04A9933C02E
:104D2000F801EA5AFE4F6381611561F02091FA01A2
:104D30003091FB0184819581820F931F0E944F2542
:104D4000811519F10E94152580E28A95F1F75A988C
:104D5000529A90E19A95F1F7F801EA5AFE4F608174
:104D6000611551F02091FA013091FB01818192810E
:104D7000820F931F0E949D250E941D25789481E03B
:104D800008C000C0C7CF019749F4529A5A9A789444
:104D900080E0DF91CF911F910F91089500C0BECFA9
:104DA000AA1BBB1B51E107C0AA1FBB1FA617B70751
:104DB00010F0A61BB70B881F991F5A95A9F780956D
:104DC0009095BC01CD0108952F923F924F925F9232
:104DD0006F927F928F929F92AF92BF92CF92DF920B
:104DE000EF92FF920F931F93CF93DF93CDB7DEB770
:104DF000CA1BDB0B0FB6F894DEBF0FBECDBF099404
:104E00002A88398848885F846E847D848C849B845A
:104E1000AA84B984C884DF80EE80FD800C811B8168
:104E2000AA81B981CE0FD11D0FB6F894DEBF0FBE97
:104E3000CDBFED010895992778E0880F991F961747
:104E400008F0961B881F7A95C9F780950895EE0F94
:104E5000FF1F0590F491E02D0994FB01DC0102C0D5
:104E600005900D9241505040D8F70895FB01DC01A8
:104E700004C08D910190801921F441505040C8F731
:104E8000881B990B0895FB01DC0102C001900D9273
:104E900041505040D8F70895DC0101C06D93415056
:104EA0005040E0F70895FB01DC0101900D920020D5
:104EB000E1F70895AEE0B0E0E0E6F7E20C94F22608
:104EC0000D891E898F89988D26E02C831A8309838A
:104ED00097FF02C080E090E801979E838D83AE012A
:104EE000455E5F4F698D7A8DCE0101960E948A27BB
:104EF0004D815E8157FD0AC02F81388542175307C7
:104F00000CF49A01020F131FF80110822E96E4E0B0
:104F10000C940E27ABE0B0E0E0E9F7E20C94E42655
:104F20007C013B018A01FC0117821682838181FF8B
:104F3000B9C19AE0292ECE0101965C01F701938157
:104F4000F30193FD859193FF81913F01882309F43B
:104F500046C1853239F493FD859193FF81913F01DC
:104F6000853229F4B70190E00E946B29E7CF912C9C
:104F7000412C512CFFE1F51538F08B3209F188F402
:104F8000803201F1833221F157FC3AC020ED280F25
:104F90002A3040F556FE1FC0929C200D1124922EFF
:104FA00006C08D3291F0803379F7689450F8F301A0
:104FB00093FD859193FF81913F018111DBCF20C04B
:104FC000689451F8689452F8F2CF689453F8EFCF90
:104FD000689454F8ECCF429C200D1124422E689422
:104FE00055F8E5CF8E3229F456FCF9C0689456F88E
:104FF000DECF8C3619F4689457F8D9CF8836B9F2D9
:10500000982F9F7D95549330C0F08336A1F183375C
:10501000C1F1833509F05BC0F801C190D1908F01D7
:10502000692D70E056FC02C06FEF7FEFC6010E9451
:1050300055294C01689457F80AC00C5F1F4F2FE3A5
:10504000298388248394912C6501E89457F853FCB4
:1050500004C04814190409F018F5342C8114910483
:1050600031F5332009F46ACFB70180E290E00E9465
:105070006B293A94F6CFF801808189830E5F1F4F28
:10508000E0CFF801C190D1908F01692D70E056FCFE
:1050900002C06FEF7FEFC6010E9460294C01D5CF9F
:1050A000B70180E290E00E946B294A94D2CFF601CA
:1050B00057FC859157FE81916F01B70190E00E94E6
:1050C0006B2931103A94F1E08F1A9108C7CF8436DA
:1050D00019F0893609F074C0F80157FE6AC0619171
:1050E0007191819191918F01252D2F76D22E97FF6D
:1050F00009C090958095709561957F4F8F4F9F4F18
:105100006894D7F82AE030E0A5010E949B29C82EB8
:10511000CA188C2C5D2CD6FE0CC0E89450F8C9142B
:1051200040F4D4FE05C0D2FC03C0FD2DFE7E5F2EF0
:10513000892C54FE8FC0FE01EC0DF11D808180335F
:1051400009F081C0252D297E522E852D8870382E9C
:1051500053FC8FC050FE89C09C2C841418F44C0C56
:10516000942C981854FE8BC0B70180E390E00E9405
:105170006B2952FE09C088E790E051FE02C088E525
:1051800090E0B7010E946B29C91408F484C0CA9446
:10519000D12C9FEFC91AD90ACA0CDB1CF6018291E7
:1051A0006F01B70190E00E946B29AC14BD04B1F708
:1051B00058CF61917191072E000C880B990B93CFFA
:1051C000D52CE894D4F82AE030E0853739F1952DD4
:1051D000997FD92E8F3601F148F48835A9F0F7016F
:1051E000868197812B96E2E10C940027803749F065
:1051F0008837A9F7D4FE02C06894D2F820E130E0E5
:105200000DC06894D4F8F6CF54FE03C0E92FE660D1
:10521000DE2E20E132E002C028E030E0F801D7FEC7
:105220000DC061917191819191918F01A5010E94B1
:105230009B29C82ECA18E894D7F86BCF6191719159
:1052400090E080E0F2CF52FC02C083947ECF839442
:1052500083947BCF852D867809F477CFF6CFB7017D
:1052600080E290E00E946B2983948414C0F3312C77
:1052700079CF342C3818841408F474CFF8CF852DE6
:10528000867809F481CF8BE251FE80E257FC8DE2F3
:10529000B70190E077CFB70180E390E00E946B29DF
:1052A0009A9472CF8FEF9FEF9DCFFC0105906150D4
:1052B00070400110D8F7809590958E0F9F1F08952C
:1052C000FC016150704001900110D8F780959095D5
:1052D0008E0F9F1F08950F931F93CF93DF93182F67
:1052E000092FEB018B8181FD09C01FEF0FEF812F8B
:1052F000902FDF91CF911F910F91089582FF14C0DD
:105300002E813F818C819D81281739073CF4E881EB
:10531000F981CF0101969983888310838E819F81C3
:1053200001969F838E83E3CFE885F985812F0995C8
:10533000892BA1F3DACFFA01AA27283051F12031C5
:1053400081F1E8946F936E7F6E5F7F4F8F4F9F4F19
:10535000AF4FB1E03ED0B4E03CD0670F781F891F5B
:105360009A1FA11D680F791F8A1F911DA11D6A0F29
:10537000711D811D911DA11D20D009F468943F91DC
:105380002AE0269F11243019305D3193DEF6CF01DB
:105390000895462F4770405D4193B3E00FD0C9F7A1
:1053A000F6CF462F4F70405D4A3318F0495D31FD0E
:1053B0004052419302D0A9F7EACFB4E0A695979561
:1053C000879577956795BA95C9F700976105710537
:1053D00008959B01AC010A2E069457954795379581
:1053E0002795BA95C9F7620F731F841F951FA01DDB
:1053F0000895F999FECF92BD81BDF89A992780B59D
:105400000895A8E1B0E042E050E00C943D2ADC01B0
:10541000A40FB51F4150504048F0CB01840F951F99
:105420002E910E94182A41505040D0F70895262FFF
:10543000F999FECF92BD81BDF89A019700B402168A
:1054400039F01FBA20BD0FB6F894FA9AF99A0FBE38
:1054500008950396272F0E94182A0E94172A252FA5
:105460000E94182A242F0C94182A0196272F0E9494
:10547000182A0C94172ADC01CB01FC01F999FECF04
:1054800006C0F2BDE1BDF89A319600B40D924150CC
:105490005040B8F70895F894FFCF130C390C3F0C27
:1054A000390C3F0C920CB40C3F0C9E0DAB0DF1105F
:1054B000401169119911C611F31120124D12801279
:1054C000AD12DA120713311361139113F713FB13A3
:1054D000ED13F313FF13031407146B14D314731495
:1054E0003D144114771445147B1487145114CC14C3
:1054F00055148B1459148F14B4145D149314BB14E5
:1055000063149914A11449147F144D14831467145F
:0E5510009D14AB14C414CA1437146F14DA14AB
:10551E00000001000171086F0AA208A308A4088008
:10552E008182838485868788898A8B8C8D8E8F90E5
:10553E0091929394A0A1A2A3A4A5A6A7A8A9AAAB51
:10554E00ACADAEAFB0B1B2B3B4C0C1C2C3C4C5C6C8
:10555E00C7C8C9CACBCCCDCECFD0D1D2D3D4000000
:10556E0021007F2200030000000100000000000067
:10557E000005010000000406000000000000C40049
:10558E004A00000000BE004D00000000B8004B00B5
:10559E00000000B2004E00000000AC004C00000005
:1055AE00000125647825642C206B253264203A2076
:1055BE002563004C617965723A2042617365004C37
:1055CE00617965723A205261697365004C61796543
:1055DE00723A204C6F776572004C617965723A2091
:1055EE0041646A757374004C617965723A20556E28
:1055FE006465662D2575006697C63435F6F731332A
:10560E0032360008101818100800DD042020202063
:10561E006162636465666768696A6B6C6D6E6F70F4
:10562E007172737475767778797A313233343536A0
:10563E003738393052454254202020202020203B3C
:08564E0027202C2E2F20202024
:00000001FF
