:100000000C9448040C9465040C9465040C944322ED
:100010000C9465040C9465040C9465040C946504BC
:100020000C9465040C9465040C94FA1E0C94E11F66
:100030000C94D30F0C9465040C9465040C94650423
:100040000C9465040C9465040C9465040C9465048C
:100050000C9465040C94D61E0C9465040C946504F1
:100060000C9465040C9465040C9465040C9465046C
:100070000C9465040C9465040C9465040C9465045C
:100080000C9465040C9465040C9465040C9465044C
:100090000C9465040C9465040C9465040C9465043C
:1000A0000C9465040C9465040C94650400AF00AED8
:1000B0000000000000003E5B4F5B3E003E6B4F6B5C
:1000C0003E001C3E7C3E1C00183C7E3C18001C5729
:1000D0007D571C001C5E7F5E1C0000183C18000051
:1000E000FFE7C3E7FF00001824180000FFE7DBE785
:1000F000FF0030483A060E00262979292600407F65
:1001000005050700407F05253F005A3CE73C5A00A3
:100110007F3E1C1C0800081C1C3E7F0014227F220E
:1001200014005F5F005F5F0006097F017F000066CB
:1001300089956A0060606060600094A2FFA29400EC
:1001400008047E04080010207E20100008082A1CE5
:100150000800081C2A0808001E10101010000C1EB1
:100160000C1E0C0030383E383000060E3E0E0600E5
:1001700000000000000000005F0000000007000712
:100180000000147F147F1400242A7F2A12002313F6
:10019000086462003649562050000008070300003A
:1001A000001C224100000041221C00002A1C7F1C70
:1001B0002A0008083E080800008070300000080887
:1001C0000808080000006060000020100804020019
:1001D0003E5149453E0000427F4000007249494976
:1001E00046002141494D33001814127F1000274565
:1001F000454539003C4A4949310041211109070070
:10020000364949493600464949291E000000140074
:1002100000000040340000000008142241001414C3
:1002200014141400004122140800020159090600A8
:100230003E415D594E007C1211127C007F494949B4
:1002400036003E41414122007F4141413E007F490D
:10025000494941007F09090901003E4141517300AC
:100260007F0808087F0000417F4100002040413F97
:1002700001007F08142241007F40404040007F027F
:100280001C027F007F0408107F003E4141413E0078
:100290007F09090906003E4151215E007F091929A5
:1002A000460026494949320003017F0103003F40CF
:1002B00040403F001F2040201F003F4038403F008B
:1002C0006314081463000304780403006159494D62
:1002D0004300007F4141410002040810200000411A
:1002E00041417F00040201020400404040404000C0
:1002F0000003070800002054547840007F2844443D
:100300003800384444442800384444287F00385496
:100310005454180000087E0902001824241C780098
:100320007F080404780000447D4000002040403DE8
:1003300000007F102844000000417F4000007C0442
:10034000780478007C080404780038444444380079
:100350007C1824241800182424187C007C08040429
:10036000080048545454240004043F4424003C40F2
:1003700040207C001C2040201C003C4030403C00C1
:100380004428102844004C9090907C004464544CC5
:1003900044000008364100000000770000000041E2
:1003A000360800000201020402003C2623263C001D
:1003B000000000000080808080000000000080E0DD
:1003C00070180C1830E080000010F8901030783071
:1003D00010B8FC3810000000000000F8FCF8000025
:1003E00000000000000000000000001C9C1C000039
:1003F0000000F8FCF80000000000001CFCF8C00041
:10040000000000000080E0F87C1C000000F0FCFC14
:10041000FC1C1C1C1C1C1C1C1C000000000000C040
:10042000F0F8381C1C1C1C1C1C3CF8F0E000E0F030
:10043000F0F0E0ECEEF7F37020007C7C7C7E007E38
:100440007E7E7F7F7F000080C0E07E5B4F5BFEC0D2
:100450000000C000DCD7DEDEDED7DC00C00000001C
:10046000000000000000000000000000000000008C
:1004700000000000000FBCE0818181838382870C33
:10048000183060C000001FFE90B9FFBB91983C1867
:1004900011133F1100000000000000FFFFFF0000EB
:1004A0000000000000000000000000FFFFFF00004F
:1004B0000000FFFFFF0000000000000000030F7FAE
:1004C000F8E080F0FC3F0F0100000000003F3F3FDC
:1004D0001C1C1C1C1C3C78F8F0E08000000000C3D1
:1004E000E7FF7E3C3878787070F8FFDF87000F1FD9
:1004F0003F7F7F7F7F7F3F1E0C001F1F1F3F003FFE
:100500003F3F7F7F7F00307B7F7830202030787FB7
:100510003B0003000F7F0F0F0F7F0F000300000051
:1005200000000000000000000000000000000000CB
:10053000183C24666341C18180808080808081C1B5
:100540004162386C4CC68181808080808081C1434B
:1005500062361C1800000000000000FFFFFFC0C052
:10056000C0C0C0C0C0C0C0800000007FFF7F0000CE
:1005700000007FFFFFC080000000E0E0C0C0C0E0DE
:10058000F97F1F0700000000000000000070F0E08D
:10059000E0C0C0C0C0E0F0F87F3F0F0000000F3F98
:1005A0007FF9E0E0C0C0C0C0C0E0F97F3F1F00009D
:1005B000000000000000000000000000000000003B
:1005C000000000000000000000000000000000002B
:1005D000000000000000000000000000000000001B
:1005E000000000000000000000000000000000000B
:1005F00005010906A101050719E029E715002501F4
:10060000950875018102950175088101050719009A
:1006100029FF150026FF00950675088100050819B9
:1006200001290515002501950575019102950175B2
:10063000039101C009022200010100A0FA0904008F
:1006400000010301010009211101000122440007FA
:100650000581030800011201000200000008D8040F
:100660002DEB0001010200010E034C0069006C003B
:10067000790035003800000010036C0069006C0040
:10068000690075006D00730000000403090400DABE
:100690000281FFD9F1DB20A4A62EAF00A0C0D300B9
:1006A00000A1C8D30000AED580A81F408D14200043
:1006B00029001E00407E2000210022002B00140093
:1006C0001A00080015001700E000040016000700DB
:1006D00009000A00E1001D001B00060019000500CA
:1006E0000000E300E2008B412C0030004D7E457E8F
:1006F000447E437E427E417E467E130012000C0003
:1007000018001C004C7E4B7E0F000E000D000B00ED
:100710002845380037003600100011000000E700BF
:100720002A008A4228003200010001000100010075
:100730000100010029001E00407E2000210022004F
:100740004D7E1E021F022002210222020100010032
:100750000100010001000100000001000100010092
:100760000100010001000100010001000100010081
:100770004D7E457E447E437E427E417E350226028A
:1007800025022502240223028902320230022E02AF
:100790002D02000000000100010001000100010025
:1007A00001000100010001000100010001001E0024
:1007B000407E20002100220001003A003B003C0066
:1007C0003D003E0001003F00400041004200430068
:1007D0000000010001000100010001000100010012
:1007E00001000100010001000100457E447E437EBE
:1007F000427E417E00004C004F00520051005000EC
:100800008700320030002D02467E330200000100D6
:1008100001000100010001000000000000000000D4
:1008200000000000000000000000000000000000C8
:1008300000000000000000000000000000000000B8
:1008400000000000000000000000010001000100A5
:100850000100000000000000000000000000000097
:10086000A900BD000000000000000000AA00BE00BA
:100870004D004E004B004A00A8004600000000005A
:100880000000000000000100010001000100000064
:1008900011241FBECFEFDAE0DEBFCDBF12E0A0E033
:1008A000B1E0EAE3FEE402C005900D92A431B10785
:1008B000D9F725E0A4E1B2E001C01D92AC37B20740
:1008C000E1F70E941C1B0C94D9260C940000909315
:1008D00034058093330508959C0186709927069707
:1008E00031F4286030933605209335050895277F2D
:1008F000F9CF21E030E002C0220F331F8A95E2F7E2
:100900008091350590913605822B932B0E946C04C3
:10091000089521E030E002C0220F331F8A95E2F7EC
:10092000209530958091350590913605822393234B
:100930000E946C0408959A3090F5863080F5E82F77
:10094000F0E086E0989FE00DF11D11248E2F877056
:1009500041E001C0440F8A95EAF783E0F695E795F8
:100960008A95E1F7EE0FFF1FEE0FFF1FE352FB4FDB
:1009700020E030E070E05191DF01CB01022E02C097
:10098000969587950A94E2F781708195852784234F
:1009900085278E932F5F3F4F2430310561F70895EF
:1009A0009A3078F5863068F5E82FF0E086E0989F79
:1009B000E00DF11D11249E2F977083E0F695E795C9
:1009C0008A95E1F7EE0FFF1FEE0FFF1FE352FB4F7B
:1009D00040E050E080E0219130E0092E02C03695E1
:1009E00027950A94E2F721703327042E01C0220FC5
:1009F0000A94EAF7822B4F5F5F4F4430510559F755
:100A0000089580E0089580913C0590913B059813EE
:100A100001C008958F5F8770FACF90913705809558
:100A2000892380933705282F277021110DC089173E
:100A300059F09091390592FF07C086958695869565
:100A40000E948904109237050895982F90958091FF
:100A5000300589238093300508957A30B8F46630E4
:100A6000A8F48430B0F4E62FF0E096E0799FE00D32
:100A7000F11D11249CE3899FE00DF11D1124EE0F5F
:100A8000FF1FE055F94F85919491089580E090E023
:100A9000089581E0FCCF9C01803E910509F448C097
:100AA000D8F48133910509F47DC048F48932910569
:100AB00009F46DC08A9709F47CC0C901089589338F
:100AC000910551F18238910539F1C597B1F78091BF
:100AD000380585FFF2CF29C0843E910509F447C04F
:100AE00048F4823E910599F1833E9105A9F121EEEA
:100AF00030E0E3CF863E910509F444C0873E91057E
:100B0000E1F68091380583FD61C09091390591FF30
:100B10002BC024EE30E0D1CF809138058370811155
:100B200052C08091390583FFC8CF29E230E0C5CF9C
:100B30008091380580FD33C09091390590FFBDCF7D
:100B400023EE30E084FFB9CF20E030E0B6CF8091D3
:100B5000380582FDF5CFB1CF8091380582FD30C0D8
:100B60009091390590FD2FC084FFA7CFEDCF8091E4
:100B7000390581FFA2CF8091380527EE30E084FD52
:100B8000E3CF9BCF8091380583FDF7CF96CF80913F
:100B9000380585FD1EC08091390583FF8ECF29E37E
:100BA00030E08BCF8091380586FF87CF2AE230E096
:100BB00084CF8091380586FF80CF21E330E07DCF60
:100BC00022EE30E07ACF20EE30E077CF26EE30E034
:100BD00074CF25E330E071CF9091380592FF10C0BB
:100BE00041E0282F2471243009F040E031E0282F23
:100BF0002871283009F030E0431711F02CE08227EB
:100C000093FF10C041E0282F2471243109F040E007
:100C100031E0282F2871283109F030E0431711F016
:100C20002CE082273091390530FF10C051E0282F89
:100C30002171213009F050E041E0282F287128303F
:100C400009F040E0541711F029E0822731FF10C06D
:100C500041E0282F2171213109F040E031E0282FB7
:100C60002871283109F030E0431711F029E082277C
:100C700094FD877E08951F93CF93DF930E944B05C9
:100C8000EC01811522E5920708F047C0811540E587
:100C9000940708F0BEC0883E9105E0F4803E9105BF
:100CA00060F4853A910570F4049738F481E0219757
:100CB00009F080E0C82F50E0D52FCE01DF91CF9111
:100CC0001F9108958D5C9109D0654397B0F3C0E002
:100CD000D0E0F3CFC11580E4D807A8F4C11590E2A5
:100CE000D90708F0ACC0CE019A9581159F4178F7DD
:100CF0008D2F0E94EC05182FCE0199270E944B05DD
:100D0000EC01D12BDACFCE0199270E944B05CC27DD
:100D1000DF70C82BD92BD06AD0CF803842E594073A
:100D2000C8F5803652E5950708F056C0C03482E514
:100D3000D807D0F4C03292E5D90708F046C08C2F0E
:100D40008695869520E2829FC0011124C37021E020
:100D500030E0A90102C0440F551FCA95E2F7EA012D
:100D6000C82BD92BDD68A9CF8C2F869586958770E7
:100D700050E2859FC0011124C37021E030E0A90139
:100D800002C0440F551FCA95E2F7EA01C82BD92BC0
:100D9000DC6893CF803C52E5950758F48F71C03AD8
:100DA000D24578F590E0982F8827EC01C46FD06A7F
:100DB00084CF805C9245809708F089CFDC2FCC27C8
:100DC000CC27DF71C06FD06A78CFCF71D0E0DC2F35
:100DD000CC27C16FD06A71CF86958695877020E247
:100DE000829FC0011124C37021E030E0A90102C03C
:100DF000440F551FCA95E2F7EA01C82BD92BDA68D0
:100E00005CCF0E94EC05C82FD0E0DC2FCC27D0624D
:100E100054CF8F710E94EC0593E0CC0FDD1F9A95A3
:100E2000E1F7CC27DF70282F30E084FF04C050E1C9
:100E3000859F90011124C22BD32BD0693ECF8D2FDB
:100E40008F710E94EC05182FCE0199270E944B0547
:100E5000EC01D12BDCCFA0E0B0E0E1E3F7E00C94B3
:100E60007B238C01E0903505F090360580913305A9
:100E700090913405E82AF92ACFE0D0E0CC24C3943D
:100E8000D12CC6010C2E02C0880F991F0A94E2F7DC
:100E90008E219F21892B49F4219798F7B12C8B2D16
:100EA000CDB7DEB7E9E00C949723BC2EB8018C2FA8
:100EB0000E942D050E943B06019771F3F0CF0F931E
:100EC0001F93CF93FC01858100811181811591F0E1
:100ED000611581F0C8010E942B07C82F682FC80137
:100EE0000E949B04B8018C2F0E942D05CF911F9169
:100EF0000F910895C8010E94D004C82FF3CFCF935B
:100F0000DF93D82FC92F0E942B076D2F7C2F0E94B3
:100F10002D050E943B06DF91CF910895FC0184814D
:100F20008115A1F0808191810E947F07282F9295E1
:100F30009F70963099F060F4925F9F70923030F419
:100F4000203FB1F038F481E0283E38F080E0089589
:100F50009A5FF3CF81E0243FC9F7089591E0213FE4
:100F600009F090E081E0283E08F080E0892B0895A8
:100F700081E0089580E00895F894E82FE295EF70FD
:100F8000F0E041A18F7021E030E0B90102C0660FAE
:100F9000771F8A95E2F7CB01962F9095942391A322
:100FA00092A1892B82A3789408958091CB04811516
:100FB00059F0E091D304F091D404309729F00190D6
:100FC000F081E02D0995089580E008959C01FC01D1
:100FD00032968FEF90E04191461751F08F3F19F410
:100FE000411101C0892F9F5F9630A9F78F3F09F407
:100FF0000895280F311D87FD3A95F9016283089500
:101000009C01FC013296285F3F4F8191861302C0FC
:10101000DF011E92E217F307C1F7089580910101E5
:1010200008952FB7F8946091440270914502809121
:101030004602909147022FBF0895CF92DF92EF9220
:10104000FF928091CB04811559F00E9411086B0129
:101050007C01C701B601FF90EF90DF90CF9008951B
:101060000E941108C090CD04D090CE04E090CF042F
:10107000F090D004C60ED71EE81EF91EEACF0895E0
:1010800008950895FC019B0180913A0290913B02E2
:101090008617970740F0672B29F48091E8008E7738
:1010A0008093E800C90140E0009741F4411106C077
:1010B0008091E80082FF2FC080E0089520915602C1
:1010C0002115A9F12530A9F12091E80023FD2DC0BB
:1010D0002091E80022FDECCF2091E80020FFE4CF32
:1010E0003091F3002091F200009719F0283031057B
:1010F00058F041E02830310509F040E02091E80047
:101100002E772093E800D0CF41914093F1000197D2
:101110002F5F3F4FE9CF80915602811541F0853016
:1011200041F08091E80083FFC3CF81E0089582E021
:10113000089583E008958091340287FF13C0809161
:10114000E80082FF06C08091E8008B778093E8007A
:101150000895809156028111F2CF08958091560230
:101160008115D9F38091E80080FFF8CF8091E800E5
:101170008E77ECCF2091E4003091E50095E6A9014F
:101180002091EC00822F817020FF06C08091E80042
:1011900080FF06C080E008952091E80022FD1AC07B
:1011A00080915602811589F0853089F08091EB009D
:1011B00085FD0FC02091E4003091E50042175307F0
:1011C000F9F29A95E1F684E0089582E0089583E0CB
:1011D000089581E00895E8EDF0E080818E7F8083BE
:1011E0001092E2001092DA001092E100A0EEB0E05E
:1011F0008C9181608C9380818F77808319BCA7ED5F
:10120000B0E08C918E7F8C9380818F7E8083109252
:1012100033020895FC01AC014B5F5F4F8FEF61E338
:101220009191892728E030E0982F990F87FF09C016
:10123000892F862721503040B9F7E417F50781F749
:101240000895892FF7CF982F9093E900891771F0AF
:101250005091EC002091ED004091F00021FD09C07B
:101260009F5F973089F78093E9000895562F40E0FB
:1012700022E03091EB003E7F3093EB003091ED00A7
:101280003D7F3093ED003091EB0031603093EB0007
:101290005093EC002093ED004093F0002091EE007D
:1012A00027FDDECF0895A0E0B0E0E9E5F9E00C9479
:1012B0007C23C8EDD0E088818F7E8883E7EDF0E065
:1012C00080818160808384E082BF81E080933302EB
:1012D00088818E7F888302EE10E0F80110821092E0
:1012E000DA0081EEC82ED12CF601108288818F772A
:1012F000888388818068888388818F7D888319BCF2
:10130000109256021092320210925502109231023F
:1013100090EEE92EF12CF70180818B7F808388810C
:101320008160888360E080E00E942309F60180816B
:101330008E7F8083F80180818160808380818860D6
:101340008083F70180818E7F80838881806188839C
:10135000CDB7DEB7E8E00C949823E0913C0590917E
:101360003B0527E0E91302C080E00895AE2FB0E00E
:101370002E9FF0011124E35CFA4F3181361306C031
:101380003081381303C03581341304C0FD01319618
:10139000E770E8CF81E008950F931F93CF93DF9319
:1013A0008C0180915602843051F581E08093E900F0
:1013B0008FEF9091E80095FD06C095ED9A95F1F7B5
:1013C00000008A95B1F78091E80085FF18C00E945F
:1013D000BA0881110FC0C8E0D0E08091E80085FD17
:1013E00013C08091E8008E778093E8000E94BA08CD
:1013F000811599F38091E8008E778093E800DF9162
:10140000CF911F910F910895F80181918F018093E1
:10141000F100219711F7EECFCF93DF93D82FC92F8B
:101420000E94CC0988E0ED2FFC2FACE3B2E00190E4
:101430000D928A95E1F7DF91CF910895A0E0B0E099
:10144000E4E2FAE00C947A23182F092FB62EA72E87
:101450007A01809128029AE0C92ED12C8A3018F0A6
:10146000CC24C394D12CC1E0D0E06B2D7A2D812FF8
:10147000902FF7010995811116C02196CC16DD0633
:1014800094F0CC9FC001CD9F900D900D112420E0D1
:1014900030E045E34A95F1F700002F5F3F4F2817F2
:1014A0003907B9F7E2CFCDB7DEB7EAE00C9496235F
:1014B0009091390592FB222720F9281779F080FBBB
:1014C00092F990933905609138057091390584E05F
:1014D00090E00E94C32682E00E940D05089580914D
:1014E000300590913A05892B40913105411589F0DD
:1014F00090E028E132E0F90150812F5F3F4F511118
:101500009F5F52E02E313507B1F7911110923105EE
:10151000842B8093160248E050E065ED74E086E18C
:1015200092E00E94C423892BA9F088E0E6E1F2E072
:10153000A5EDB4E001900D928A95E1F7E091D30416
:10154000F091D404309731F00280F381E02D86E1F0
:1015500092E00995089510923005E8E1F2E086E006
:10156000DF011D928A95E9F710923A050E946F0AF1
:1015700008950E94AB0A2FEF84E39CE02150804045
:101580009040E1F700C0000088E19AE00FB6F894BF
:10159000A895809360000FBE90936000FFCFAAE2F1
:1015A000B0E0E5EDFAE00C94812384E392E0FC01E5
:1015B00001962091F100208322E08C339207B9F745
:1015C00080913502893009F45AC0C8F4823009F498
:1015D000B6C0833009F485C0813091F18091E80074
:1015E00083FFEAC080913402909135029A3008F06E
:1015F000E3C0E92FF0E0E552F94D0C94B5238A30B1
:1016000009F48CC08B3051F780913402813231F76C
:101610008091380290913902892B01F78091E8007E
:10162000877F8093E8000E949B0881E090913602BA
:10163000911101C080E0809302010E94AB0ACECFDD
:1016400080913402813A51F68091E800877F80933F
:10165000E8008091380290913902892B61F060E0B6
:1016600080E090E070E00E9442088091E8008B7773
:101670008093E800B3CF68E08CE392E0F3CF8091F1
:101680003402813209F0AACF809138029091390258
:10169000892B09F0A3CF8091E800877F8093E80031
:1016A0008091E80082FF18C09091F3008091F200D1
:1016B000029731F48091F100813011F0863021F4ED
:1016C0008091F100809301018091E8008B778093F5
:1016D000E8000E949B0882CF809156028111E0CFE2
:1016E0007DCF80913402813A09F078CF8091380221
:1016F00090913902892B09F071CF8091E800877FA2
:101700008093E8008091E80080FFFCCF8091020187
:101710008093F1008091E8008E77D9CF80913402D8
:10172000813209F05BCF8091E800877F8093E800E9
:101730000E949B0880913702809300014FCF8091D7
:101740003402813A09F04ACF8091E800877F809384
:10175000E8008091E80080FFFCCF80910001D8CFA5
:10176000803889F0823841F5809138028F70873057
:1017700018F58093E9008091EB0085FB882780F9BC
:101780001092E90006C080915502880F90913102B5
:10179000892B9091E800977F9093E8008093F10067
:1017A0001092F1008091E8008E7723C0811116C05D
:1017B00080913602813011F18091E80083FF0AC0E8
:1017C0008091E800877F8093E8008091EB00806241
:1017D0008093EB00AA96E3E00C949D23823061F79E
:1017E00080913602811589F01092E9008091E8001D
:1017F000877F8093E8000E949B08DECF81E09330D2
:1018000009F080E080935502EFCF809138028F700D
:101810002FEF280F263080F68093E9002091EB000F
:1018200020FFE2CF933031F48091EB00806280930F
:10183000EB00DACF9091EB0090619093EB0021E008
:1018400030E0A90102C0440F551F8A95E2F740938A
:10185000EA001092EA008091EB008860E8CF8111E5
:10186000ABCF109136021F778091E3008078812BF7
:101870008093E3008091E800877F8093E8000E94D6
:101880009B088091E80080FFFCCF8091E300806896
:101890008093E30083E0111101C082E0809356023F
:1018A0008BCF8058823008F087CF2091360230915C
:1018B00037022C3D53E0350799F583E08A838AE2AD
:1018C00089834FB7F894DE01139620E03EE051E2A1
:1018D000E32FF0E050935700849120FF03C08295DE
:1018E0008F703F5F8F708A30C8F0895C90E08D9375
:1018F0009D932F5F243161F74FBF8091E800877F70
:101900008093E8006AE270E0CE0101960E944208EE
:101910008091E8008B778093E8004ECF805DE6CF22
:10192000832F99278330910501F160F4813091056F
:1019300009F46CC0029709F03FCF82E290E0E4E343
:10194000F6E028C0209138023091390281329105A9
:1019500009F454C0829709F02FCF232B09F02CCF24
:1019600084E490E0E0EFF5E015C0C901992721304B
:10197000A9F18230910509F439C0892B09F01CCFF7
:10198000EAE8F6E0E4918E2F90E0EAE8F6E00097CE
:1019900009F412CF2091E800277F2093E8002091DE
:1019A0003A0230913B028217930708F49C0140E011
:1019B0002115310581F541112EC08091E80082FD8D
:1019C000A7CF80915602811509F4A2CF853009F482
:1019D0009FCF8091E80083FFF0CF9ACFE8E7F6E051
:1019E000E4918E2F90E0E8E7F6E0D1CFE8E6F6E06C
:1019F000E4918E2F90E0E8E6F6E0C9CF232B09F0C2
:101A0000DBCE89E090E0E6E4F6E0C4CF82E190E04E
:101A1000E6E5F6E0BFCF80915602811509F478CF54
:101A2000853009F475CF8091E80083FD71CF8091F6
:101A3000E80082FDC2CF8091E80080FFB9CF90918D
:101A4000F3008091F2002115310519F088309105DD
:101A500050F041E0089709F040E08091E8008E776F
:101A60008093E800A5CF44914093F1003196215036
:101A700031090196E8CF803809F09ECE8091E800C8
:101A8000877F8093E800809132028093F1008ACEB4
:101A9000811192CE10913602123008F08DCE8091D5
:101AA000E800877F8093E800109332020E949B0831
:101AB000111579F084E08093560261EC81E00E9478
:101AC000230980915602843051F482E0809303010F
:101AD00073CE8091E30087FDEDCF81E0ECCF81E014
:101AE000F5CFCF93C82F8115A9F08CEF8C0F813AD9
:101AF00098F4E8E1F2E08EE192E02191C217E9F07A
:101B00008E179F07D1F76C2F86E192E00E94E607BF
:101B10000E946F0ACF91089580E28C0F8830D0F731
:101B2000C77021E030E001C0220FCA95EAF780912A
:101B30003005822B80933005EBCF6C2F86E192E04D
:101B40000E9400080E946F0ADECF682F811551F0B5
:101B50008CEF860F813A38F486E192E00E9400080B
:101B60000E946F0A089580E2860F8830D8F7677068
:101B700081E001C0880F6A95EAF70E942505F0CF41
:101B8000811539F090913005892B809330050E94A2
:101B90006F0A0895811521F00E9425050E946F0AA1
:101BA0000895CF92DF92EF92FF921F93CF93DF932E
:101BB00000D000D0CDB7DEB7C090B404D090B5044B
:101BC000E090B604F090B7040E9411086C197D09EA
:101BD0008E099F0911E0643671058105910578F140
:101BE0000E941D08DC01CB010296A11DB11D898355
:101BF0009A83AB83BC83809167019091680188547C
:101C00009B4F20916601422F50E0253010F044E0B8
:101C100050E0BE016F5F7F4F0E94D12382E090E0D1
:101C20000E94EA22182F811551F00E94110860933A
:101C3000B4047093B5048093B6049093B704812FD5
:101C40000F900F900F900F90DF91CF911F91FF9009
:101C5000EF90DF90CF9008958F929F92AF92BF92B6
:101C6000FF920F931F93CF93DF9300D000D000D04B
:101C7000CDB7DEB7F62E072F80E090E00E94EA2273
:101C8000182F811509F460C080915901482F50E048
:101C9000811511F041E050E060915A0170915B01B3
:101CA00068547B4FCE0106960E94D1238090C704D2
:101CB0009090C804A090C904B090CA040E94110872
:101CC000681979098A099B096436710581059105AE
:101CD00038F489EB94E00E940A099E818917A1F1EA
:101CE00081E090E00E94EA228115C9F180916101B2
:101CF000482F50E0863010F045E050E060916201DE
:101D00007091630168547B4FCE0101960E94D123EC
:101D100089EB94E00E940A099E81891320C00E94E9
:101D200011086093C7047093C8048093C90490930A
:101D3000CA0485E0FE013196A2ECB4E001900D9258
:101D40008A95E1F781E00CC085E0E9EBF4E0DE0183
:101D5000119601900D928A95E1F71111EACF80E07A
:101D600095E0E2ECF4E0AF2DB02F01900D929A9542
:101D7000E1F70F900F900F900F900F900F90DF9161
:101D8000CF911F910F91FF90BF90AF909F908F9038
:101D90000895AB0124E630E0BC0188E70E940621EB
:101DA0009C0181E0232B09F080E008958091B2042A
:101DB000811569F08091AF04811549F062E070E00F
:101DC0008EEA90E00E94C90E81111092AF0408952E
:101DD0008091B2048115F9F00E941108DC01CB0159
:101DE000805A9541AF4FBF4F8093AB049093AC04A2
:101DF000A093AD04B093AE048091AF0481110BC0E9
:101E000062E070E08CEA90E00E94C90E811519F042
:101E100081E08093AF040895CF93DF93682F81E032
:101E20006A3019F06D3031F480E00E948C0FDF9140
:101E3000CF91089580916C0290916D0226E0FC0193
:101E4000ABE2B2E001900D922A95E1F7603E08F412
:101E500058C026E0FC0111922A95E9F7C0916C0266
:101E6000D0916D0246E050E0BE018BE292E00E940C
:101E7000C4239E01275A3240892B41F1C90145E014
:101E8000969587954A95E1F741E050E0BA0102C086
:101E9000660F771F8A95E2F7CB016091A9047091D4
:101EA000AA04862B972BB9016B5F7F4FE5E07695EF
:101EB0006795EA95E1F702C0440F551F6A95E2F76E
:101EC000842B952B9093AA048093A9042A5F3F4FFB
:101ED00040916E02642F70E0C9010E945E23481B8E
:101EE000463010F4240F311D211572E0370710F031
:101EF00020E030E029553D4F30936D0220936C0275
:101F000096CFF6E06F9FB001112460557F4F46E0F9
:101F100050E00E94BB23A2CFCF93382FE0916C02F8
:101F2000F0916D02E75AF24020916E02622F70E04C
:101F3000CF010E945E23281B822F311561F066E0DD
:101F40000E94A923C82FC15010F4CF91089580E2B8
:101F50000E940C0FF8CF8E0F9F2F911D811522E04C
:101F6000920710F080E090E089559D4F90936D02AC
:101F700080936C02EACF0F931F93CF93DF93EC0112
:101F8000FC0101900020E9F78F0101501109C017F1
:101F9000D10728F0DF91CF911F910F91089589917A
:101FA0000E940C0FF4CF1F921FB61F9211248F9323
:101FB0009F93AF93BF9380915402811113C080917E
:101FC000440290914502A0914602B0914702419689
:101FD000A11DB11D8093440290934502A093460237
:101FE000B0934702BF91AF919F918F911F901FBEF9
:101FF0001F9018952FB7F894809144029091450254
:10200000A0914602B09147022FBF0895CF93DF936E
:10201000EC010E94FA0F8C1B9D0BDF91CF9108956C
:10202000EF92FF920F931F93CF93DF93C62FD42F7E
:10203000122F8115A9F060932E050E94FA0F90933C
:102040002A0280932902C77081E001C0880FCA95D7
:10205000EAF70E94C00DCDB7DEB7E6E00C949A23F4
:1020600080912E05681335C0E0902902F0902A0275
:102070000E94FA0F8E199F09883C910550F500E2E5
:102080000D0FCD17A9F0C770FF24F3948F2D01C059
:10209000880FCA95EAF70E94CA0D083048F48D2FC0
:1020A000877001C0FF0C8A95EAF78F2D0E94C00D42
:1020B000812F0E94710D812F0E94A50D083058F6C6
:1020C000D77081E001C0880FDA95EAF70E94CA0D47
:1020D000C2CFC77081E001C0880FCA95EAF7F6CF7A
:1020E000A0E0B0E0E6E7F0E10C947C237C01FC0189
:1020F0008481811509F44DC061E0C7010E945F072A
:10210000EC01F7018581FE01E054FE47EF30F10557
:1021100008F0AFC2EB51F94D0C94B523811549F18C
:102120008091160281FB992790F99093FE04982FD5
:10213000907285FB222720F92093FD0481FD2EC09B
:102140009115A1F185EE0E94A50D8FE20E94710DFF
:102150008FE20E94A50D8091FE04811519F081EE99
:102160000E94710D8091FD04811519F085EE0E9489
:10217000710D809137058770811559F0F7018581C0
:10218000811539F08091390582FF03C082E00E94F9
:102190000D05CDB7DEB7E8E00C94982381EE0E94E0
:1021A000A50D8091FD04811581F2CCCF8FE10E94B5
:1021B000710D8FE10E94A50DDCCF8115D1F28091C8
:1021C000160281FB992790F99093FE04982F907244
:1021D00085FB222720F92093FD0481FD0AC091157B
:1021E00081F085EE0E94A50D8EE20E94710D8EE2B7
:1021F000B0CF81EE0E94A50D8091FD048115A1F361
:10220000F0CF83E20E94710D83E2D4CF811509F4EF
:10221000B0CF8091160281FB992790F99093FE042C
:10222000982F907285FB222720F92093FD0481FDD1
:1022300010C09115B1F085EE0E94A50D81EE0E94AF
:10224000710D83E20E94710D83E20E94A50D81EE63
:1022500080CF81EE0E94A50D8091FD04811571F360
:10226000EACF84E20E94710D84E2A4CF811509F4C3
:1022700080CF8091160281FB992790F99093FE04FC
:10228000982F907285FB222720F92093FD0481FD71
:102290000DC0911599F085EE0E94A50D81EE0E946A
:1022A000710D84E30E94710D84E3CFCF81EE0E9413
:1022B000A50D8091FD04811589F3EDCF85E20E9483
:1022C000710D85E277CF811509F453CF8091160205
:1022D00081FB992790F99093FE04982F907285FBCB
:1022E000222720F92093FD0481FD0DC0911599F05E
:1022F00085EE0E94A50D81EE0E94710D85E20E947F
:10230000710D85E2A2CF81EE0E94A50D8091FD04A2
:10231000811589F3EDCF86E20E94710D86E24ACFE6
:10232000811509F426CF8091160281FB992790F937
:102330009093FE04982F907285FB222720F920931A
:10234000FD0481FD0DC0911599F085EE0E94A50D4B
:1023500081EE0E94710D86E20E94710D86E275CFBA
:1023600081EE0E94A50D8091FD04811589F3EDCFCA
:1023700087E20E94710D87E21DCF811509F4F9CE25
:102380008091160281FB992790F99093FE04982F73
:10239000907285FB222720F92093FD0481FD0DC05A
:1023A000911599F085EE0E94A50D81EE0E94710DA8
:1023B00087E80E94710D87E848CF81EE0E94A50D45
:1023C0008091FD04811589F3EDCF8DE20E94710D9E
:1023D0008DE2F0CE811509F4CCCE8091160281FBFE
:1023E000992790F99093FE04982F907285FB2227ED
:1023F00020F92093FD0481FD0DC0911599F085EE23
:102400000E94A50D81EE0E94710D83E30E94710D63
:1024100083E31BCF81EE0E94A50D8091FD04811501
:1024200089F3EDCF81EE0E94710D8DE20E94710D56
:102430008DE20E94A50D81EEBDCE811509F499CEE5
:102440008091160281FB992790F99093FE04982FB2
:10245000907285FB222720F92093FD0481FD0DC099
:10246000911599F085EE0E94A50D81EE0E94710DE7
:1024700080E30E94710D80E3E8CE81EE0E94A50DFD
:102480008091FD04811589F3EDCF80E30E94710DE9
:1024900080E390CE811509F46CCE8091160281FB09
:1024A000992790F99093FE04982F907285FB22272C
:1024B00020F92093FD0481FD0DC0911599F085EE62
:1024C0000E94A50D81EE0E94710D82E30E94710DA4
:1024D00082E3BBCE81EE0E94A50D8091FD048115A3
:1024E00089F3EDCF82E30E94710D82E363CE811503
:1024F00009F43FCE8091160281FB992790F99093C1
:10250000FE04982F907285FB222720F92093FD046A
:1025100081FD0DC0911599F085EE0E94A50D81EE0B
:102520000E94710D89E80E94710D89E88ECE81EEBE
:102530000E94A50D8091FD04811589F3EDCF87E8F8
:102540000E94710D87E836CE811509F412CE809174
:10255000160281FB992790F99093FE04982F9072B0
:1025600085FB222720F92093FD0481FD0AC09115E7
:1025700081F085EE0E94A50D84E30E94710D84E335
:10258000E8CD81EE0E94A50D8091FD048115A1F397
:10259000F0CF83E30E94710D83E30CCE811509F423
:1025A000E8CD8091160281FB992790F99093FE0463
:1025B000982F907285FB222720F92093FD0481FD3E
:1025C0000DC0911599F085EE0E94A50D81EE0E9437
:1025D000710D8FE10E94710D8FE137CE81EE0E9467
:1025E000A50D8091FD04811589F3EDCF81EE0E9448
:1025F000710D84E20E94710D84E21BCF811509F4F4
:10260000B8CD8091160281FB992790F99093FE0432
:10261000982F907285FB222720F92093FD0481FDDD
:102620000DC0911599F085EE0E94A50D81EE0E94D6
:10263000710D8EE20E94710D8EE207CE81EE0E9436
:10264000A50D8091FD04811589F3EDCF81EE0E94E7
:10265000710D8FE20E94710D8FE2EBCE811509F4AE
:1026600088CD81EE0E94710D89E30E94710D89E38E
:10267000E0CE811509F442C0F7019081818110E21A
:10268000CC33D10520F4FE01E852FE4F10811F9299
:102690001F93DF93CF931F929F931F928F938EE68A
:1026A00091E09F938F931F9288E18F9386E195E04D
:1026B0009F938F930E94E8238091140590911505B4
:1026C000EDB7FEB73E960FB6F894FEBF0FBEEDBF56
:1026D0008431910551F444E150E060E270E08FEF05
:1026E00094E00E94DA2380E090E0FC01E150FB4F8F
:1026F000108301969093150580931405F701858149
:10270000FE01E851FC47E730F10508F5EC50F94DC2
:102710000C94B52326E241EE61EE0E94101029CD03
:1027200027E245EE65EEF9CF26E241EE60EEF5CF09
:1027300027E245EE64EEF1CF26E241EE62EEEDCF08
:1027400027E245EE66EEE9CF28E241E0EBCF8115C6
:1027500009F4A5C310922E059E013057233231058E
:1027600008F084C384E090E00E948F26909339059E
:1027700080933805FE01E150F047E232F10520F484
:10278000E550F94D0C94B523809138058160809314
:102790003805609138057091390584E090E00E9419
:1027A000C3260E94AB0AE5CC8091390588608093EE
:1027B0003905EFCF809138058260E9CF80913805E7
:1027C0008460E5CF809138058860E1CF809139053C
:1027D0008160EDCF809139058260E9CF8091380525
:1027E0008061D5CF809138058062D1CF8091380546
:1027F0008064CDCF0E94AB0A809138058068C7CF36
:10280000809138058C60C3CF809139058360CFCF2C
:10281000809138058E7FBBCF80913905877FC7CFE8
:10282000809138058D7FB3CF809138058B7FAFCFF6
:1028300080913805877FABCF809139058E7FB7CFE8
:10284000809139058D7FB3CF809138058F7E9FCFE2
:10285000809138058F7D9BCF809138058F7B97CFF6
:102860000E94AB0A809138058F7791CF809138050F
:10287000837F8DCF809139058C7F99CF80913805EA
:10288000992782FF939590FB82F990FB83F97FCF84
:1028900080913905982F909590FB80F990FB81F9F4
:1028A00086CF90913805892F8F7B96FF80646FCFFC
:1028B0000E94AB0A90913805892F97FB87F98058C1
:1028C00066CF61E08EE090E00E94A52662CF60E0D6
:1028D000F9CF90913805892F8F7E94FF806157CF73
:1028E00090913805892F8E7F90FF816050CF909115
:1028F0003905892F877F93FF886059CF9E01205E1D
:10290000324520323105A8F481112AC0CF7181E00F
:1029100090E09C0102C0220F331FCA95E2F7E90143
:10292000622F83E090E00E94A526CE010E946704FA
:1029300020CC8115A9F0CA353CE7D30709F4B1C012
:1029400008F07AC0C1309CE7D90709F4A8C0C330A9
:10295000ECE7DE0709F49DC0C115DC4709F47DC032
:10296000F701858100811181811509F49EC0C8019C
:102970000E942B07C82F682FC8010E949B04B80132
:102980008C2F0E942D050E943B06D82FC92FF701DE
:102990000581C680C2948FE0C82280913705877078
:1029A000811501F1D02E0115F1F0892F807F80343F
:1029B00061F080E28D0F8830A8F0892F807E803210
:1029C00021F4D23078F0C11469F08091390582FF8A
:1029D00009C082E00E940D05809137058770DD24D3
:1029E000D3948111D12C8C2F82958F70883009F46B
:1029F00029C108F05FC0823008F46EC0825F8F701A
:102A0000823008F4A1C0D11409F453C18091370574
:102A100080FD4FC1F70115828695869586950E94A7
:102A20007904C7010E9470108091370586958695BC
:102A300086950E9489043DC1CB352CE7D20799F1D8
:102A400080913905002482FF0394802DCC35DC472A
:102A500009F086CF0E94580A83CF0E94AB0A8FEFFD
:102A600094E3ECE081509040E040E1F700C00000CA
:102A700087E797E7909301088093000888E19AE040
:102A80000FB6F894A895809360000FBE90936000F5
:102A9000FFCF6FEF7FEF80E090E00E94C3260E949F
:102AA000B90A81E0D7CF80E0D5CFC8010E94D00419
:102AB000C82F65CF893009F455C18A5F8F70823085
:102AC00008F0A1CFD23F09F05EC18C2F8F710111A8
:102AD00057C10E947904EBC01C2F1F70C03110F049
:102AE0001295107F0115B9F0111569F080E28D0F74
:102AF000883010F0D11109C080913005812B80936E
:102B000030050E946F0A8D2F41C080913A05812BBC
:102B100080933A05F6CF8D2F0E94A50D111509F46B
:102B200072CF80E28D0F883010F0D11104C0812F58
:102B30000E94250506C0109580913A058123809357
:102B40003A050E946F0A5FCF1C2F1F70C07FC032F2
:102B500011F01295107FD11549F0D13009F452C00F
:102B6000011509F45EC0C114F9F0CDCF809139058B
:102B700082FD16C0011569F0111539F080913005FC
:102B8000812B809330050E946F0A80E00E94710DB6
:102B90003ACF80E00E94A50D111509F434CFC7CFBC
:102BA0000115A1F0C11004C0812F0E94C00D2BCFD0
:102BB000F1E0CF1228CF80913105912F982319177A
:102BC00009F421CF812B809331051DCFC1101BCF7C
:102BD000812F0E94CA0D90913105812F8923811583
:102BE00029F0812F809589238093310580913205CA
:102BF000912F9823911509F406CF1095182310935F
:102C0000320501CF011529F026E0C21608F0FBCEEF
:102C1000CBCF35E0C31608F0F6CE812F0E94CA0D47
:102C2000F2CEC114D1F3D93349F48FEF97EEE3E03C
:102C300081509040E040E1F700C000008D2F0E94DD
:102C4000A50DE1CE8C2F8370811146C001112FC0DC
:102C50004D2F429546954770440F440F2D2F2F70EE
:102C600030E0042E02C0220F331F0A94E2F780E006
:102C700090E0D4FF09C08FE090E002C0880F991F58
:102C80004A95E2F780959095C695C695C370C23077
:102C9000D1F0C330A9F04091330550913405C130D3
:102CA00069F0822B932B842395230E9467040E9452
:102CB000D50760E0C7010E945F076BCA242B352B44
:102CC000822B932BF2CF822B932B209133053091C3
:102CD000340582279327E9CF011591F1C0FFE7CF93
:102CE0004D2F429546954770440F440F2D2F2F705E
:102CF00030E0042E02C0220F331F0A94E2F780E076
:102D000090E0D4FF09C08FE090E002C0880F991FC7
:102D10004A95E2F780959095C695C695C370C230E6
:102D2000C1F0C33099F04091350550913605C1305E
:102D300059F0822B932B842395230E946C04B7CFE8
:102D4000823008F4B4CFCCCF242B352B822B932B9D
:102D5000F4CF822B932B20913505309136058227B5
:102D60009327EBCFCF70011539F08C2F0E94790497
:102D70008D2F0E94C00D9BCF8D2F0E94CA0D8C2FCE
:102D80000E94890494CF70F4D03FC9F0D13F91F0F4
:102D9000011509F457C0C11409F451C08D2F0E94C8
:102DA000710D85CFD33F29F1D43F91F7909139052B
:102DB00092FD2DC08C2F8F71011511F38ACE011554
:102DC000A9F0F5E0CF1608F072CFCF7181E090E066
:102DD0009C0102C0220F331FCA95E2F7E9018091DE
:102DE00035059091360582279D27A7CF36E0C3167B
:102DF000EACF80E090E0011509F49FCFCF7181E028
:102E000090E002C0880F991FCA95E2F796CF01158E
:102E100061F08C2F8F7192FF5CCE982F990F990FD4
:102E2000990F93609093370554CE81E00E940D0571
:102E300082E0C81608F43BCF0E940D0538CF8C2FD6
:102E40008F7147CEC11479F0D93349F49FEFE7EE83
:102E5000F3E09150E040F040E1F700C000008D2F1A
:102E60000E94A50D24CF8C2F8F718ACFC631FCE72D
:102E7000DF0709F043CD809130058A7A91E0811116
:102E800001C090E090932F0565E3811101C069E2D4
:102E900086E192E00E94E6070E946F0A6AC9C63185
:102EA0002CE7D20709F02ACD80912F0565E3811127
:102EB00001C069E286E192E00E940008EDCF8091B6
:102EC0007B05803178F480917A05811559F0E09185
:102ED0003C0520913B05309176054091750557E002
:102EE0002E1301C008956E2F70E05E9FF001112433
:102EF000DF01A35CBA4F14968C911497811561F190
:102F000011968C911197831327C08C91841324C040
:102F100015968C91159781111FC012968D919C91D9
:102F2000A0917705B09178058A1B9B0B883C910591
:102F300098F480917B058F70806180937B05ED5BB9
:102F4000FA4F80818F708061808385E795E00E94D1
:102F500070100E9403050895FB013196E770C0CF01
:102F6000ADE0B0E0E6EBF7E10C9475238C0186E070
:102F7000F801DE01189601900D928A95E1F7D801CB
:102F80001596FC90159714967C9085E7882E85E021
:102F9000982E80917905811120C07114D9F0F11417
:102FA00009F438C1C8010E948E07811509F432C1A5
:102FB00087E0F801D40101900D928A95E1F7B1E024
:102FC0007B1206C080917505909176050E947F075F
:102FD0000E945F17FF24F3943EC0F8016080518087
:102FE000A280B38060E085E795E00E945F076C01F6
:102FF000E0907A0580917705909178059501281BDE
:10300000390BE11409F4E7C0283C310508F0BEC0D3
:10301000711401F390917605D80111962C911197B6
:1030200080917B05803108F073C0291319C020916D
:1030300075059C91291314C0F1104BC08F708061ED
:1030400080937B0585E795E00E94701080917B0559
:10305000F8018683F12C8F2D2D96EFE00C949123AF
:10306000F11037C040E0652D862D0E94AD0940E08B
:10307000652D862D0E94AD09F82E8111EBCF888534
:1030800099850E947F07292F22952F70903458F43C
:103090009F70223088F0911599F0D80116969C9176
:1030A000903170F4D8CF2A5F2F70223068F0C801B9
:1030B0000E947010FE2CCFCF911511F0811559F29E
:1030C000805E883040F2F3CF803F28F2815F83300A
:1030D000F9CF80917B05816080937B05BCE4CB16A2
:1030E000B1E4DB0649F0EFE4CE1AE1E4DE0AF4E0F5
:1030F000CF16D10408F0AECF85E795E00E9470109E
:1031000087E0E5E7F5E0DF011D928A95E9F7A2CFB8
:10311000291315C020917505F801908129130FC05E
:10312000F1100DC08683C8010E94701087E0F8017D
:10313000A5E7B5E001900D928A95E1F74BCFC80164
:103140000E948E07811509F465C0F11409F462C06C
:1031500080917B05803288F020917505309176054D
:103160003A832983BC82AB82909179059D831E822C
:103170008F83CE0101960E94701087E0F801A5E7C9
:10318000B5E001900D928A95E1F722CF80917B0501
:10319000803138F485E795E00E94701087E0D40113
:1031A000B3CF711409F416CF20917605F8019181FF
:1031B0002913C5CF2091750590812913C0CFF11037
:1031C000BECF8683C8010E94701087E0D4011D9293
:1031D0008A95E9F7FFCE283C310500F7711409F410
:1031E000F9CEF114B9F090917605F8018181981328
:1031F00007C0909175058081981302C087E098CF31
:10320000C8010E948E078111B8CF80917B05816033
:1032100080937B05C8010E947010DCCEABE1B0E06A
:10322000E4E1F9E10C9480234E8B5F8B688F798FFA
:103230008A8F192F9B8F911110923A051D8A86E073
:10324000FE017696DE011F9601900D928A95E1F7B8
:103250000A8D011561F00B8B1C8B61E0CE010F967E
:103260000E945F0761E0CE010F960E945F070B8B03
:103270001C8B87E0FE013F96DE01189601900D92AF
:103280008A95E1F7CE0108960E94B017811128C0F7
:1032900020913B0530913C0587E0FE013896DE0128
:1032A000119601900D928A95E1F78C858115C1F0F8
:1032B000822F90E001968770992738171906D9F068
:1032C00097E0929FD0011124A35CBA4FFE01319682
:1032D00001900D929A95E1F780933B050E940305BA
:1032E00017E080913C0590913B05891312C06B96C5
:1032F000E4E00C949C230E94AB0A10923B051092D0
:103300003C0587E0E5E7F5E0DF011D928A95E9F7E6
:10331000E7CF189FC0011124835C9A4F0E94B01719
:10332000811529F380913C0590E0019687709927DB
:1033300080933C05D6CFA6E0B0E0E1EAF9E10C9439
:1033400080230E94FA0F8C018091D1049091D204C5
:103350008017910779F019821A820E94FA0FBC0136
:1033600049815A8180E090E00E940E191093D204A6
:103370000093D1042696E4E00C949C23AFE0B0E0E7
:10338000E4ECF9E10C947323FE0131968AE0DF014D
:103390001D928A95E9F783ECE82E81E0F82E8F01E3
:1033A00098EC692E91E0792E2F01AA24A394B12CD8
:1033B0003EEC832E31E0932EF70181917F018F3F08
:1033C00009F43EC0F894E82FE295EF70F0E021A1F7
:1033D0008F70A50102C0440F551F8A95E2F7CA01FC
:1033E000922F982B91A392A18095892382A3789400
:1033F00000C0E8ECF1E031E0312C21912F3F79F071
:10340000A22FA295AF70A05EB0E08C9190E02F70DB
:1034100002C0959587952A95E2F780FF76C080E0F7
:10342000382A330F8E169F0641F7F70182918F3F9E
:1034300011F00E94BC0750EA5A95F1F7D8013C926E
:103440000F5F1F4F6E147F0409F0B6CF4AE050E0C3
:10345000B20188E492E00E94C4236C01892B41F000
:103460008AE0F201A8E4B2E001900D928A95E1F7BA
:103470000091530210E0095A1D4FC114D10409F400
:1034800046C081E0809327020E94FA0F90932602A3
:10349000809325028091CB04811509F492C07E01AE
:1034A000BBE0EB0EF11C85E0F70111928A95E9F77C
:1034B000809128028A3008F04EC04CE25EE0B701ED
:1034C000C8010E941E0A811509F469C041ED5DE042
:1034D000B701C8010E941E0A811509F460C010924C
:1034E00028028091520290E045E050E0B701895AED
:1034F0009D4F0E94C42321E020932402892B09F0D0
:1035000041C02F96E1E10C948F23832F89CF8091C6
:103510002702811509F4BECFE0902502F090260223
:103520000E94FA0F8E199F09059708F4B3CF45E062
:1035300050E068E472E0C8010E94C423892B41F086
:1035400085E0E8E4F2E0D80101900D928A95E1F778
:10355000109227029FCFC0902202D09023020E9497
:10356000FA0F8C199D09843F914008F0A6CF8091F5
:103570002402811531F285E0D7011D928A95E9F781
:1035800010922402A0915202B0E0A95ABD4F85E0EA
:10359000FE013B9601900D928A95E1F7B2CF8091A2
:1035A00028028F3F39F40E94FA0F909323028093F0
:1035B0002202DDCF8F5F809328028A3008F491CFFA
:1035C000F2CF85E0F801A9EBB4E001900D928A9565
:1035D000E1F789EB94E00E940A098093B804C09057
:1035E000BE04D090BF04E090C004F090C10480916C
:1035F0001E0290911F02A0912002B0912102C816D4
:10360000D906EA06FB0609F47CCFC0921E02D092CE
:103610001F02E0922002F09221020E941108C61AB5
:10362000D70AE80AF90AC092CD04D092CE04E092FB
:10363000CF04F092D00465CFCDB7DEB72A970FB68E
:10364000F894DEBF0FBECDBF85B7806885BF85B754
:10365000806885BF84B7877F84BF0FB6F894A8952C
:1036600080916000886180936000109260000FBEBE
:1036700080E890E00FB6F894809361009093610029
:103680000FBE81E0809303018AEB97E090931502CF
:10369000809314020E94EB080E9453098091E2007B
:1036A00084608093E200789480915602811599F0AD
:1036B0008091E9001091EC008F70179511271795F4
:1036C000182B1092E9008091E80083FD0E94CF0A38
:1036D0001F701093E90082E084BD93E095BD9AEFDE
:1036E00097BD80936E001092CD041092CE0410927C
:1036F000CF041092D0048091D80080618093D800CC
:103700002AE12A95F1F700C08091D900182F117095
:1037100080FD04C00E94EB08109256021093CB0467
:103720001093CC041093040111110E94FC2180918C
:1037300004018091040190E0811101C095E0909313
:10374000530285E0891B8093520203EC11E0D801FB
:103750008D918D018F3F11F00E94BC07B1E0083CB4
:103760001B07A9F708EC11E0F80181918F018F3F49
:1037700011F00E94BC07F1E00E3C1F07A9F78AE098
:10378000E7E5F2E0DF01282F1D922A95E9F7E8E44A
:10379000F2E0DF011D928A95E9F780E090E00E9457
:1037A0008F26853E9E4F09F461C065EE7EEF80E076
:1037B00090E00E94C32660E082E090E00E94A5268F
:1037C00081E090E0909334058093330561E083E0DD
:1037D00090E00E94A52660E074E184E090E00E9401
:1037E000C32660E086E090E00E94A52660E087E0C6
:1037F00090E00E94A52640E050E0BA0188E090E009
:103800000E94B72660E083E290E00E94A52660E077
:103810008CE090E00E94A52660E08DE090E00E94A0
:10382000A52619821A821B821C821D821E821F827B
:10383000188648E050E067E170E0CE0101960E94F2
:10384000952640E050E0BA018FE190E00E94B72653
:1038500040E050E0BA018FE090E00E94B72640E0DF
:1038600050E0BA0183E190E00E94B72682E090E048
:103870000E9487268093610284E090E00E948F2658
:10388000909339058093380583E090E00E94872665
:1038900090E00E9467048091CB0491E08927880F13
:1038A0008093A70480E880936E020E9481206BE0E1
:1038B00070E085EA96E00E94C90E811509F43FC0C8
:1038C0008091A70465E070E081FDA3C080EA96E0E6
:1038D0000E94C90E811599F16DE070E08EE896E0C6
:1038E0000E94C90E811559F10E941108DC01CB011B
:1038F000805A9541AF4FBF4F8093AB049093AC0477
:10390000A093AD04B093AE04E7EAF2E080E092E069
:10391000DF019C011D9221503040E1F7F0936D02D0
:10392000E0936C028FEF9FEF9093AA048093A90419
:1039300081E08093B2048093AF041092A804809138
:10394000CB04811102C00E94FF2185E091E0909399
:10395000D4048093D30448E1242E312C8091560264
:10396000853049F480915602853009F455C00E9493
:10397000AB0A0E94D5070E94BE1902E612E037E5A5
:10398000E32E32E0F32ED701F80191918D9122E0E0
:10399000EC36F20709F474C09817B9F38090CB04A1
:1039A000D12CD701CD907D01F80191908F019C140D
:1039B00039F19C24B12CAA24A394892D8A21811544
:1039C000C1F08114B1F0B982DA820E94FA0F9C83AF
:1039D0008B83F1E0FD8391E08C2D8A21811101C060
:1039E00090E09E8349815A816B817C818D810E9408
:1039F0000E19B394AA0C26E0B212DFCFF801C292DE
:103A0000D3943AE0D312CDCF0E941D08DD24D39485
:103A10003CC08BE996E05CCF80915602843021F166
:103A20000E94D60E1092540230E40FB6F894A89576
:103A3000209260000FBE3093600083B7817F846066
:103A400083BF83B7816083BF7894889583B78E7F67
:103A500083BF0FB6F894A895809160008861809329
:103A60006000109260000FBE0E94BE19E7E5F2E010
:103A7000819181117EC182E0E136F807C9F772CFEA
:103A800098138CCF0E949B19D12C8091B204811580
:103A900009F484C00091B0041091B1040E94FA0F9F
:103AA000801B910BC29708F45AC00E94FA0F9093A2
:103AB000B1048093B00487EA92E090936D02809302
:103AC0006C028091CB04811509F47AC08091350590
:103AD000909136058430910509F46FC0E0F40097A9
:103AE00019F168E971E08230910501F19F938F939C
:103AF00083EB91E09F938F931F9288E18F938FE6E2
:103B000092E09F938F930E94E8230FB6F894DEBF54
:103B10000FBECDBF0FC08830910519F08E309105D2
:103B200029F765EA71E002C06FE771E08FE692E085
:103B30000E94E1238FE692E00E94BB0F81E00E9489
:103B40008C0F86E195E00E94BB0F81E00E948C0FF4
:103B50008FEF94E00E94BB0F81E00E948C0F809158
:103B6000A9049091AA04892B81F58091AF04811555
:103B7000A9F00E9411080091AB041091AC042091AF
:103B8000AD043091AE04601B710B820B930B6F3F41
:103B90007F4F8F4F9F4710F40E94D60ED1100E9486
:103BA000E80E0E94D5079091B304891709F4D6CE88
:103BB0008093B3040E941108D1CE6BE871E0B6CFB8
:103BC0008FE091E00E94BB0FCACF8091B2048115B3
:103BD00061F28091A8048111C8CF0E94E80E209163
:103BE000A9043091AA042115310509F4BECF10E0D3
:103BF00041E050E0812F90E07A01012E02C0EE0CEE
:103C0000FF1C0A94E2F7B70162237323672B11F4B8
:103C10001F5FF0CF2091A70420FF98C0912F990F2C
:103C2000990F990F37E0390F80E023E0909351010D
:103C300080935401309352012093550124E630E0E3
:103C400047E050E06FE471E088E70E94B720892BDD
:103C500009F08BCF90E2199FA00111248091A70455
:103C600080FF80C0E7E8F2E080E2DF011D928A95E4
:103C7000E9F7E2EDF1E0FA87E9870EEC11E087E081
:103C8000982E88248394A985BA856D91BA87A987CF
:103C9000F80181918F01840F952F911D9C01295569
:103CA0003D4F2901E62FF0E0E957FD4F20E030E0DD
:103CB000692C621AC82C022E01C0CC0C0A94EAF7B7
:103CC000520190E0D5018D915D018C21662D691B1B
:103CD000677070E0B82F062E01C0BB0F0A94EAF798
:103CE0007195619571096770772701C086956A950E
:103CF000EAF78B2B6081862B80839F5F983011F7CA
:103D00002F5F3F4F31962830310591F6E985FA85CE
:103D1000E65DF14009F0B7CF04E610E020E230E0C4
:103D200047E852E060E488E70E945121892B09F0BE
:103D30001CCFE094F0948091A9049091AA048E2164
:103D40009F219093AA048093A9040FCF96958795FD
:103D500096958795282F912F9295990F90763FE110
:103D6000390F64CF49555D4F04E610E020E230E0A2
:103D7000D9CF80915502811509F4F4CD90E199BD18
:103D8000A2E1A9BD09B400FEFDCF8091D8008F7DCE
:103D90008093D8008091E00082608093E000809161
:103DA000E00081FDFCCF0E94AB0ADCCD78941F922D
:103DB0001FB61F9211248F939F93AF93BF9380914F
:103DC000440290914502A0914602B09147020196AB
:103DD000A11DB11D8093440290934502A093460219
:103DE000B0934702BF91AF919F918F911F901FBEDB
:103DF0001F9018951F920F920FB60F9211242F93B8
:103E00003F934F935F936F937F938F939F93AF9362
:103E1000BF93EF93FF938091E10082FF09C08091EF
:103E2000E20082FF05C08091E1008B7F8093E1007A
:103E30008091DA0080FF24C08091D80080FF20C0EC
:103E40008091DA008E7F8093DA008091D90080FF24
:103E5000A8C080E189BD82E189BD09B400FEFDCF23
:103E600081E08093560280913302811109C00E9443
:103E7000EB080E9453098091E20084608093E20085
:103E80008091E10080FF1AC08091E20080FF16C09F
:103E90008091E2008E7F8093E2008091E200806159
:103EA0008093E2008091D80080628093D80019BC92
:103EB00085E08093560283E0809303018091E100C6
:103EC00084FF2FC08091E20084FF2BC080E189BD78
:103ED00082E189BD09B400FEFDCF8091D8008F7DBD
:103EE0008093D8008091E1008F7E8093E1008091E3
:103EF000E2008F7E8093E2008091E20081608093F7
:103F0000E20080913202811509F451C084E080936F
:103F1000560280915602843009F051C082E08093AD
:103F200003018091E10083FF2BC08091E20083FFB9
:103F300027C08091E100877F8093E10082E0809339
:103F40005602109232028091E1008E7F8093E10050
:103F50008091E2008E7F8093E2008091E200806198
:103F60008093E20060E080E00E9423098091F000ED
:103F700088608093F00081E08093030180930201C8
:103F8000FF91EF91BF91AF919F918F917F916F9131
:103F90005F914F913F912F910F900FBE0F901F9007
:103FA000189519BC109256021092330269CF809175
:103FB000E30087FF02C083E0AACF81E0A8CF81E0C1
:103FC000AECF1F920F920FB60F921124EF92FF9275
:103FD0000F931F932F933F934F935F936F937F9311
:103FE0008F939F93AF93BF93CF93EF93FF9309EE7C
:103FF00010E0F8018081C091EC008F70C795CC274C
:10400000C795C82B108280EFE82EF12CF701808134
:10401000877F808378940E94CF0AF8011082F7018D
:10402000808188608083CF70F801C083FF91EF9119
:10403000CF91BF91AF919F918F917F916F915F9140
:104040004F913F912F911F910F91FF90EF900F9003
:104050000FBE0F901F901895FF920F931F93CF9351
:10406000DF93182FEB011092BC0084EA8093BC0010
:104070000E94FA0F082FF92E8091BC0087FF28C0FC
:104080008091B900887F883029F08091B900887FBD
:104090008031A1F51093BB0084E88093BC000E949E
:1040A000FA0F182F092F8091BC0087FF1FC02091A5
:1040B000B900287F80E090E0283199F081E090E01D
:1040C000203411F480E090E091958195910909C028
:1040D000802F9F2D0E940610C817D90768F68EEF13
:1040E0009FEFCDB7DEB7E5E00C949B23812F902F97
:1040F0000E940610C817D907B0F6F1CF8FEF9FEFD7
:10410000F0CF1092B9008CE08093B80008950F931F
:104110001F93CF93DF93EB018093BB0084E88093E0
:10412000BC000E94FA0F182F092F8091BC0087FF56
:1041300011C02091B900287F81E090E0283211F46D
:1041400080E090E0919581959109DF91CF911F9149
:104150000F910895CF3FDC0741F3812F902F0E94EC
:104160000610C817D90708F78EEF9FEFEECFA0E033
:10417000B0E0EDEBF0E20C947723782EB62EA72E6C
:104180006A01E9010E94FA0F4C01C431D10528F1FE
:10419000CF3FDC0731F1CE0164E170E00E945E2385
:1041A000F62EE72E6F2D7E2D872D0E942C208C0160
:1041B000892BD1F4EB2CFA2CCE0CDF1CEC14FD0473
:1041C00019F001151105D1F084E98093BC00C801F4
:1041D000CDB7DEB7EDE00C949323FF24F394E12CEC
:1041E000E1CF85E0F82EFBCFCF3FDC07D9F2C40149
:1041F0000E940610C817D907A8F6DCCFBE01F70148
:1042000081917F010E9487208C01D8CFA0E0B0E08F
:10421000ECE0F1E20C947723782EB62EA72E6A01FB
:1042200089010E94FA0F4C010431110518F10F3F6A
:10423000100719F1C80164E170E00E945E23EB01F0
:10424000BE01872D0E942C207C01892BC1F4CB2D2F
:10425000DA2DCC0EDD1ECC15DD0519F0E114F104CC
:10426000C1F084E98093BC00C701CDB7DEB7EDE0B3
:104270000C949323C1E0D0E0E3CFC5E0FCCF0F3F27
:104280001007F1F2C4010E94061008171907C0F6C2
:10429000DECFFE018491B8010E9487207C01219627
:1042A000DACFA0E0B0E0E7E5F1E20C947623682EE7
:1042B000962E5A01690178010E94FA0F782E892EF4
:1042C0000431110530F10F3F100731F1C80164E1ED
:1042D00070E00E945E23162F072F612F702F862D0E
:1042E0000E942C20EC01892BC9F0FFEFEF16FF068E
:1042F000A1F3872D982D0E940610E816F90668F79D
:1043000084E98093BC00CE01CDB7DEB7EEE00C941B
:10431000922311E000E0E1CF15E0FCCFB701892D39
:104320000E948720EC018501CA0CDB1C0C151D05C1
:1043300039F3209729F7B701F80181918F010E9485
:104340008720EC01F3CF8EE14A9B02C08A95E1F70A
:104350004A9BFECF08955A9880E28A95F1F75A9ABF
:104360000895FC013BE03A95F1F798E020E080E009
:1043700031E040E14A95F1F7880F4A9B02C0816025
:10438000232742E04A95F1F7000040E14A95F1F712
:104390009A9579F790E19A95F1F799B132E03A95CB
:1043A000F1F7000040E14A95F1F792FB992790F967
:1043B00092272081920F90830895A1E0B0E0E3EE70
:1043C000F1E20C947E2319828C017C01E60EF11C33
:1043D0000E94A321CE0101960E94B121F801819390
:1043E0008F01EE15FF05A1F781E09981911180E021
:1043F0002196E6E00C949A23529A5A9A089552987C
:104400005A9AEA9AE9E6F0E080818F7C80830895E9
:104410006150770B91E001C0990F6A95EAF7692F17
:1044200090E021E0611108C0911599F05A9A80E25C
:104430008A95F1F75A980895362F3823311539F0B7
:104440005A9A922730E23A95F1F76695EBCF5A984F
:10445000F9CF5A98ECCFFF920F931F93CF93DF932E
:10446000EC018C01060F111DF9900E94AB2168E050
:104470008F2D0E940822C017D107B1F7CDB7DEB744
:10448000E5E00C949B231F920F920FB60F9211241C
:104490000F931F932F933F934F935F936F937F934C
:1044A0008F939F93AF93BF93EF93FF93CF93DF933C
:1044B0000F92CDB7DEB719820E94A321CE010196DB
:1044C0000E94B121082F069506950695982F929582
:1044D0009570202F2570920F292F23709695969511
:1044E000920F982797708981892B811509F05CC0FC
:1044F000043008F059C080E18A95F1F75A9A529A2F
:1045000082E08A95F1F700C05A9888E0089F800100
:104510001124D801AA5ABE4F1696ED91FC91179717
:104520003097A9F06091D6017091D70114962D9122
:104530003C911597260F371F11968D919C911297DC
:10454000680F791F13964C9113978C910995F80178
:10455000EA5AFE4F6381611551F02091D6013091E6
:10456000D70184819581820F931F0E942B220E9484
:10457000AB2180E18A95F1F75A9852985A9A80E1D6
:104580008A95F1F7F801EA5AFE4F6081611551F002
:104590002091D6013091D70181819281820F931FA2
:1045A0000E94DD210E94A3210F90DF91CF91FF9106
:1045B000EF91BF91AF919F918F917F916F915F919B
:1045C0004F913F912F911F910F910F900FBE0F9020
:1045D0001F9018950F931F93CF93DF938C0104972F
:1045E0000CF064C0F894529A5A9885E08A95F1F7D5
:1045F0000000C02FC695C570802F8570C80F8C2F06
:104600008370C695C69593E0000F111F9A95E1F748
:10461000C80FC8018C2BEC010E94AB2100C068E0E0
:104620008C2F0E94082290E19A95F1F752985A9A9D
:104630004A9B35C087E090E04A9933C0F801EA5AB6
:10464000FE4F6381611561F02091D6013091D70151
:1046500084819581820F931F0E94DD21811519F1BC
:104660000E94A32180E28A95F1F75A98529A90E12C
:104670009A95F1F7F801EA5AFE4F6081611551F001
:104680002091D6013091D70181819281820F931FB1
:104690000E942B220E94AB21789481E008C000C0C8
:1046A000C7CF019749F4529A5A9A789480E0DF91E3
:1046B000CF911F910F91089500C0BECFAA1BBB1BC5
:1046C00051E107C0AA1FBB1FA617B70710F0A61B12
:1046D000B70B881F991F5A95A9F780959095BC0133
:1046E000CD0108952F923F924F925F926F927F92E9
:1046F0008F929F92AF92BF92CF92DF92EF92FF92F2
:104700000F931F93CF93DF93CDB7DEB7CA1BDB0B9D
:104710000FB6F894DEBF0FBECDBF09942A88398842
:1047200048885F846E847D848C849B84AA84B98449
:10473000C884DF80EE80FD800C811B81AA81B98155
:10474000CE0FD11D0FB6F894DEBF0FBECDBFED0169
:104750000895992778E0880F991F961708F0961BFF
:10476000881F7A95C9F780950895EE0FFF1F059071
:10477000F491E02D0994FB01DC0102C005900D923B
:1047800041505040D8F70895FB01DC0104C08D91E1
:104790000190801921F441505040C8F7881B990BB3
:1047A0000895FB01DC0102C001900D924150504080
:1047B000D8F70895DC0101C06D9341505040E0F7F7
:1047C0000895FB01DC0101900D920020E1F70895AE
:1047D000AEE0B0E0EEEEF3E20C9480230D891E898A
:1047E0008F89988D26E02C831A83098397FF02C056
:1047F00080E090E801979E838D83AE01455E5F4F18
:10480000698D7A8DCE0101960E9418244D815E81BA
:1048100057FD0AC02F813885421753070CF49A01BF
:10482000020F131FF80110822E96E4E00C949C23D3
:10483000ABE0B0E0EEE1F4E20C9472237C013B01CA
:104840008A01FC0117821682838181FFB9C19AE037
:10485000292ECE0101965C01F7019381F30193FDAE
:10486000859193FF81913F01882309F446C18532E8
:1048700039F493FD859193FF81913F01853229F4AD
:10488000B70190E00E94F925E7CF912C412C512CE3
:10489000FFE1F51538F08B3209F188F4803201F12F
:1048A000833221F157FC3AC020ED280F2A3040F521
:1048B00056FE1FC0929C200D1124922E06C08D32F0
:1048C00091F0803379F7689450F8F30193FD859166
:1048D00093FF81913F018111DBCF20C0689451F893
:1048E000689452F8F2CF689453F8EFCF689454F874
:1048F000ECCF429C200D1124422E689455F8E5CF50
:104900008E3229F456FCF9C0689456F8DECF8C3606
:1049100019F4689457F8D9CF8836B9F2982F9F7D4B
:1049200095549330C0F08336A1F18337C1F18335BC
:1049300009F05BC0F801C190D1908F01692D70E042
:1049400056FC02C06FEF7FEFC6010E94E3254C01C9
:10495000689457F80AC00C5F1F4F2FE329838824FF
:104960008394912C6501E89457F853FC04C04814D3
:10497000190409F018F5342C8114910431F5332011
:1049800009F46ACFB70180E290E00E94F9253A94D9
:10499000F6CFF801808189830E5F1F4FE0CFF801C9
:1049A000C190D1908F01692D70E056FC02C06FEF6D
:1049B0007FEFC6010E94EE254C01D5CFB70180E202
:1049C00090E00E94F9254A94D2CFF60157FC8591D8
:1049D00057FE81916F01B70190E00E94F9253110D7
:1049E0003A94F1E08F1A9108C7CF843619F08936CE
:1049F00009F074C0F80157FE6AC06191719181910C
:104A000091918F01252D2F76D22E97FF09C0909579
:104A10008095709561957F4F8F4F9F4F6894D7F821
:104A20002AE030E0A5010E942926C82ECA188C2C45
:104A30005D2CD6FE0CC0E89450F8C91440F4D4FEA6
:104A400005C0D2FC03C0FD2DFE7E5F2E892C54FED6
:104A50008FC0FE01EC0DF11D8081803309F081C013
:104A6000252D297E522E852D8870382E53FC8FC01F
:104A700050FE89C09C2C841418F44C0C942C98186B
:104A800054FE8BC0B70180E390E00E94F92552FEEE
:104A900009C088E790E051FE02C088E590E0B701C8
:104AA0000E94F925C91408F484C0CA94D12C9FEF40
:104AB000C91AD90ACA0CDB1CF60182916F01B70131
:104AC00090E00E94F925AC14BD04B1F758CF619174
:104AD0007191072E000C880B990B93CFD52CE8947D
:104AE000D4F82AE030E0853739F1952D997FD92E19
:104AF0008F3601F148F48835A9F0F7018681978156
:104B00002B96E2E10C948E23803749F08837A9F781
:104B1000D4FE02C06894D2F820E130E00DC0689461
:104B2000D4F8F6CF54FE03C0E92FE660DE2E20E174
:104B300032E002C028E030E0F801D7FE0DC06191FC
:104B40007191819191918F01A5010E942926C82E12
:104B5000CA18E894D7F86BCF6191719190E080E02A
:104B6000F2CF52FC02C083947ECF839483947BCF98
:104B7000852D867809F477CFF6CFB70180E290E0F3
:104B80000E94F92583948414C0F3312C79CF342CFE
:104B90003818841408F474CFF8CF852D867809F47A
:104BA00081CF8BE251FE80E257FC8DE2B70190E0AD
:104BB00077CFB70180E390E00E94F9259A9472CFF5
:104BC0008FEF9FEF9DCFFC01059061507040011069
:104BD000D8F7809590958E0F9F1F0895FC01615026
:104BE000704001900110D8F7809590958E0F9F1F0F
:104BF00008950F931F93CF93DF93182F092FEB0185
:104C00008B8181FD09C01FEF0FEF812F902FDF9166
:104C1000CF911F910F91089582FF14C02E813F8183
:104C20008C819D81281739073CF4E881F981CF01F7
:104C300001969983888310838E819F8101969F833B
:104C40008E83E3CFE885F985812F0995892BA1F320
:104C5000DACFFA01AA27283051F1203181F1E89406
:104C60006F936E7F6E5F7F4F8F4F9F4FAF4FB1E05F
:104C70003ED0B4E03CD0670F781F891F9A1FA11D5A
:104C8000680F791F8A1F911DA11D6A0F711D811D5B
:104C9000911DA11D20D009F468943F912AE0269F20
:104CA00011243019305D3193DEF6CF010895462F7F
:104CB0004770405D4193B3E00FD0C9F7F6CF462F60
:104CC0004F70405D4A3318F0495D31FD40524193C9
:104CD00002D0A9F7EACFB4E0A69597958795779586
:104CE0006795BA95C9F700976105710508959B010D
:104CF000AC010A2E06945795479537952795BA9596
:104D0000C9F7620F731F841F951FA01D0895F9999D
:104D1000FECF92BD81BDF89A992780B50895A8E18C
:104D2000B0E042E050E00C94CB26DC01A40FB51FAC
:104D30004150504048F0CB01840F951F2E910E94A6
:104D4000A62641505040D0F70895262FF999FECF5E
:104D500092BD81BDF89A019700B4021639F01FBACE
:104D600020BD0FB6F894FA9AF99A0FBE08950396EB
:104D7000272F0E94A6260E94A526252F0E94A62640
:104D8000242F0C94A6260196272F0E94A6260C9469
:104D9000A526DC01CB01FC01F999FECF06C0F2BDCE
:104DA000E1BDF89A319600B40D9241505040B8F7E9
:104DB0000895F894FFCFB00BD60BDC0BD60BDC0BB1
:104DC0002F0C510CDC0B3B0D480D8E10DD10061125
:104DD000361163119011BD11EA111D124A1277129A
:104DE000A412CE12FE122E13941398138A1390134A
:104DF0009C13A013A413081470141014DA13DE13F8
:104E00001414E21318142414EE136914F213281462
:104E1000F6132C145114FA133014581400143614C9
:104E20003E14E6131C14EA13201404143A14481414
:0A4E300061146714D4130C147714F6
:104E3A0000000100010E080C0A3F084008410880E2
:104E4A008182838485868788898A8B8C8D8E8F90D0
:104E5A0091929394A0A1A2A3A4A5A6A7A8A9AAAB3C
:104E6A00ACADAEAFB0B1B2B3B4C0C1C2C3C4C5C6B3
:104E7A00C7C8C9CACBCCCDCECFD0D1D2D3D40000EB
:104E8A0021007F2200030000000100000000000052
:104E9A00000501000000040600000000000025646F
:104EAA007825642C206B253264203A202563004C37
:104EBA00617965723A2042617365004C6179657265
:104ECA003A205261697365004C617965723A204CE7
:104EDA006F776572004C617965723A2041646A7530
:104EEA007374004C617965723A20556E6465662D5B
:104EFA002575006697C63435F6F731333236000821
:104F0A00101818100800B804202020206162636479
:104F1A0065666768696A6B6C6D6E6F7071727374BF
:104F2A0075767778797A313233343536373839309D
:104F3A0052454254202020202020203B27202C2E7E
:044F4A002F202020D4
:00000001FF
